:020000040800F2
:10000000000002209914000831040008330400089D
:100010003504000837040008390400080000000017
:100020000000000000000000000000003B04000889
:100030003D040008000000003F04000841040008DF
:10004000ED140008ED140008ED140008ED1400088C
:10005000ED140008ED140008ED140008ED1400087C
:10006000ED140008ED140008ED140008ED1400086C
:10007000ED140008ED140008ED140008ED1400085C
:10008000ED140008ED140008ED140008ED1400084C
:10009000ED140008ED140008ED140008ED1400083C
:1000A000ED140008ED140008ED140008ED1400082C
:1000B000ED140008ED140008ED140008ED1400081C
:1000C000ED140008ED140008ED140008ED1400080C
:1000D000ED140008ED140008ED140008ED140008FC
:1000E000ED140008ED14000800000000ED140008F5
:1000F000ED140008ED140008ED140008ED140008DC
:10010000ED140008ED140008ED140008ED140008CB
:10011000ED140008ED140008ED140008ED140008BB
:10012000ED140008ED140008ED140008ED140008AB
:10013000ED140008ED140008ED140008ED1400089B
:1001400000000000000000000000000000000000AF
:10015000ED140008ED140008ED140008ED1400087B
:10016000ED140008ED140008ED140008ED1400086B
:10017000ED140008ED140008ED1400080000000064
:10018000ED140008ED140008ED140008ED1400084B
:10019000ED140008ED140008ED140008ED1400083B
:1001A000ED140008ED140008ED1400080000000034
:1001B000ED140008ED140008ED140008ED1400081B
:1001C000ED140008ED14000800000000000000001D
:1001D0000000000000000000ED1400080000000016
:1001E000000000000000000000000000000000000F
:1001F0000000000000000000ED140008ED140008ED
:10020000ED140008ED14000800000000ED140008D3
:10021000ED140008ED140008ED140008ED140008BA
:10022000ED14000800000000ED14000800000000BC
:10023000ED140008ED14000800000000ED140008A3
:10024000ED140008ED140008ED140008ED1400088A
:10025000ED140008ED140008ED140008ED1400087A
:10026000ED140008ED140008ED140008ED1400086A
:10027000ED140008ED140008ED1400080000000063
:10028000ED140008ED140008ED140008ED1400084A
:1002900000000000ED140008ED140008000000004C
:1002A00000000000ED140008ED140008ED14000833
:1002B000ED140008ED140008ED140008ED1400081A
:0C02C000ED140008ED140008ED14000817
:1002CC0010B584B00024009401940294039400F0BF
:1002DC0023F901238DF800308DF8014001941F2281
:1002EC008DF8082087228DF809208DF80A408DF8AA
:1002FC000B408DF80C308DF80D308DF80E408DF8CC
:10030C000F40684600F026F9042000F013F904B001
:10031C0010BD72B6FEE7000000B59DB04C22002166
:10032C0009A801F003F92022002101A801F0FEF830
:10033C00022000F08FFF00230093194A936923F4E5
:10034C00404343F480439361936903F44043009327
:10035C00009B134B9B6913F4005FFAD002230993A3
:10036C0001230C9340230D930023129309A800F052
:10037C001DF988B93F23019300230293039304933F
:10038C000593069307930893012101A800F0FEFC46
:10039C0020B91DB05DF804FBFFF7BBFFFFF7B9FFF9
:1003AC000048025808B5FFF78BFF00F0A5FFFFF7D8
:1003BC00B3FF00F00BF80821034800F041FF642064
:1003CC0000F0DAFFF7E700BF0010025830B587B035
:1003DC000024019402940394049405940F4BD3F8D5
:1003EC00E02042F01002C3F8E020D3F8E03003F034
:1003FC0010030093009B0A4D22460821284600F06A
:10040C0019FF08230193012302930393049401A978
:10041C00284600F005FE07B030BD00BF004402586E
:10042C0000100258FEE7FEE7FEE7FEE7FEE7704726
:10043C007047704708B500F08DFF08BD82B0074BC0
:10044C00D3F8F42042F00202C3F8F420D3F8F430CD
:10045C0003F002030193019B02B070470044025861
:10046C000649CB6823F4E0631B041B0C000200F468
:10047C00E0600343024A1A43CA60704700ED00E093
:10048C000000FA0500B5174BDB68C3F30223C3F178
:10049C00070CBCF1040F28BF4FF0040C03F1040E41
:1004AC00BEF1060F14D9033B4FF0FF3E0EFA0CFCC5
:1004BC0021EA0C0199400EFA03F322EA03031943D3
:1004CC00002807DB0901C9B2074B19545DF804FB7E
:1004DC000023E9E700F00F000901C9B2034B1954DE
:1004EC00F4E700BF00ED00E000E400E014ED00E0F4
:1004FC000138B0F1807F0BD24FF0E0235861054AF0
:10050C00F02182F823100020986107221A617047AD
:10051C000120704700ED00E0BFF35F8F044B5A6A77
:10052C0022F480325A620022C3F89420704700BF34
:10053C0000ED00E040F00100054BC3F894005A6A4E
:10054C0042F480325A62BFF34F8FBFF36F8F704704
:10055C0000ED00E04378144AC2F89830D2F8A0308D
:10056C0023F00103C2F8A0304368C2F89C30017B31
:10057C00C37A1B0643EA0173817A43EAC143417B88
:10058C0043EA8143817B43EA4143C17B43EA014314
:10059C00417A43EA0123017A43EA410301780B4390
:1005AC00C2F8A030704700BF00ED00E0002800F05A
:1005BC00D78238B50446036813F0010F25D0A04A42
:1005CC00136903F03803926A102B15D0182B0FD037
:1005DC006368B3F5803F3FD0002B53D1984B1A681A
:1005EC0022F480321A601A6822F480221A6038E0F1
:1005FC0002F00302022AEBD1914B1B6813F4003F6B
:10060C0003D06368002B00F0AD82236813F0020F57
:10061C0000F088808A4A1369926A13F038035AD022
:10062C00182B55D0E368002B00F0A98084490A6888
:10063C0022F0190213430B6000F098FE0546804B24
:10064C001B6813F0040F40F0918000F08FFE401BEC
:10065C000228F4D903208CE2794A136843F48033DE
:10066C00136063682BB300F081FE0546744B1B6866
:10067C0013F4003FC9D100F079FE401B6428F5D972
:10068C00032076E2B3F5A02F09D06D4B1A6822F443
:10069C0080321A601A6822F480221A60E1E7684BF3
:1006AC001A6842F480221A601A6842F480321A6086
:1006BC00D7E700F05BFE0546614B1B6813F4003F67
:1006CC00A3D000F053FE401B6428F5D9032050E260
:1006DC0012F0030FA6D15A4B1B6813F0040F03D072
:1006EC00E368002B00F04082554A136823F019038D
:1006FC00E1680B43136000F039FE0546504B1B6854
:10070C0013F0040F06D100F031FE401B0228F5D97E
:10071C0003202EE24A4A536823F0FE43216943EA40
:10072C0001635360236813F0100F51D0444A1369CE
:10073C0003F03803926A082B39D0182B33D0E369B5
:10074C00002B69D03E4A136843F08003136000F01D
:10075C000DFE05463A4B1B6813F4807F53D100F015
:10076C0005FE401B0228F5D9032002E2344A5368E7
:10077C0023F0FE43216943EA01635360D2E7304A18
:10078C00136823F00103136000F0F0FD05462C4BB9
:10079C001B6813F0040FC5D000F0E8FD401B0228C5
:1007AC00F5D90320E5E102F00302012AC7D1244B5D
:1007BC001B6813F4807F03D0E369802B40F0D68153
:1007CC001F4AD36823F07C53216A43EA0163D36048
:1007DC00236813F0080F49D06369002B32D0184AF4
:1007EC00536F43F00103536700F0C0FD0546144BF3
:1007FC005B6F13F0020F39D100F0B8FD401B0228DB
:10080C00F5D90320B5E10E4AD36823F07C53216A55
:10081C0043EA0163D360DBE7094A136823F08003E2
:10082C00136000F0A3FD0546054B1B6813F4807F95
:10083C00CED000F09BFD401B0228F5D9032098E197
:10084C00004402589D4A536F23F00103536700F094
:10085C008DFD0546994B5B6F13F0020F06D000F02F
:10086C0085FD401B0228F5D9032082E1236813F093
:10087C00200F29D0A3699BB1904A136843F480538D
:10088C00136000F073FD05468C4B1B6813F4005F7E
:10089C001AD100F06BFD401B0228F5D9032068E14A
:1008AC00864A136823F48053136000F05FFD0546FD
:1008BC00824B1B6813F4005F06D000F057FD401B01
:1008CC000228F5D9032054E1236813F0040F21D139
:1008DC00636A002B00F04C81784A126902F03802EE
:1008EC00182A00F0F380022B75D0744A136823F099
:1008FC008073136000F03AFD0446704B1B6813F0D4
:10090C00007F00F0D88000F031FD001B0228F4D9E4
:10091C0003202EE16A4A136843F48073136000F0DD
:10092C0025FD0546664B1B6813F4807F06D100F04D
:10093C001DFD401B6428F5D903201AE1A368012B87
:10094C000AD00BBB5D4B1A6F22F001021A671A6FAB
:10095C0022F004021A6704E0584A136F43F00103B3
:10096C001367A36833B300F001FD0546534B1B6FAF
:10097C0013F0020FACD100F0F9FC401B41F28833AC
:10098C009842F3D90320F4E0052B09D04B4B1A6F96
:10099C0022F001021A671A6F22F004021A67E0E7CC
:1009AC00464B1A6F42F004021A671A6F42F00102AA
:1009BC001A67D6E700F0DAFC0546404B1B6F13F0C4
:1009CC00020F85D000F0D2FC401B41F288339842D4
:1009DC00F3D90320CDE0394A136823F080731360F8
:1009EC0000F0C4FC0546354B1B6813F0007F06D0A5
:1009FC0000F0BCFC401B0228F5D90320B9E02F4BBA
:100A0C00996A304A0A40A16AE06A41EA00110A4335
:100A1C009A62226B013AC2F30802616B01394902F6
:100A2C0089B20A43A16B0139090401F4FE010A439E
:100A3C00E16B0139090601F0FE410A431A63DA6AD7
:100A4C0022F00102DA62596B1F4A0A40A16C42EA99
:100A5C00C1025A63DA6A22F00C02216C0A43DA6290
:100A6C00DA6A22F00202616C0A43DA62DA6A42F450
:100A7C008032DA62DA6A42F40032DA62DA6A42F41A
:100A8C008022DA62DA6A42F00102DA621A6842F013
:100A9C0080721A6000F06AFC0446084B1B6813F065
:100AAC00007F06D100F062FC001B0228F5D9032060
:100ABC005FE000205DE000205BE000BF00440258D6
:100ACC00004802580CFCFFFF0700FFFF30498A6A00
:100ADC00086B012B4ED002F00303A16A8B424BD161
:100AEC00C2F30512E36A9A4248D1C0F30802236BA1
:100AFC00013B9A4244D1C0F34622636B013B9A42BC
:100B0C0040D1C0F30642A36B013B9A423CD1C0F3E7
:100B1C000660E36B013B984238D11D4B5B6BC3F312
:100B2C00CC03A26C9A4201D1002022E0184AD36A6D
:100B3C0023F00103D36200F019FC054600F016FC0B
:100B4C00A842FBD0124A516B124B0B40A16C43EAEA
:100B5C00C1035363D36A43F00103D362002008E05E
:100B6C0001207047012004E0012002E0012000E098
:100B7C00002038BD0120FCE70120FAE70120F8E74E
:100B8C000120F6E70120F4E70120F2E70120F0E76D
:100B9C00004402580700FFFF744B1B6903F0380335
:100BAC00102B00F0DE80182B10D00BB17048704762
:100BBC006E4B1B6813F0200F00F0D5806B4B186840
:100BCC00C0F3C1006B4B23FA00F0704710B4674AB6
:100BDC00916A01F00301946AC4F30510D36A03F01F
:100BEC00010C536BC3F3CC030CFB03F307EE903AED
:100BFC00F8EE677A14F47C7F00F09380012965D0BD
:100C0C00022900F09180E1B107EE100AF8EE476A74
:100C1C009FED596A86EE267A544B1B6BC3F308037F
:100C2C0006EE903AF8EE666A9FED546A67EE867AA5
:100C3C0076EEA77AF7EE006A77EEA67A27EE277A99
:100C4C0060E0136813F0200F23D011461268C2F332
:100C5C00C102484BD34007EE103AF8EE476A07EE54
:100C6C00100AB8EE476A86EE867A0B6BC3F308035C
:100C7C0006EE903AF8EE666A9FED406A67EE867A69
:100C8C0076EEA77AF7EE006A77EEA67A27EE277A49
:100C9C0038E007EE100AF8EE476A9FED396A86EEE7
:100CAC00267A324B1B6BC3F3080306EE903AF8EE30
:100CBC00666A9FED326A67EE867A76EEA77AF7EE71
:100CCC00006A77EEA67A27EE277A1BE007EE100A69
:100CDC00F8EE476A9FED286A86EE267A234B1B6B4B
:100CEC00C3F3080306EE903AF8EE666A9FED236AAA
:100CFC0067EE867A76EEA77AF7EE006A77EEA67A3A
:100D0C0027EE277A194B1B6BC3F34623013307EEEF
:100D1C00903AF8EE677AC7EE276AFCEEE67A17EEA1
:100D2C00900A5DF8044B704707EE100AF8EE476A1C
:100D3C009FED146A86EE267A0C4B1B6BC3F30803EB
:100D4C0006EE903AF8EE666A9FED0C6A67EE867ACC
:100D5C0076EEA77AF7EE006A77EEA67A27EE277A78
:100D6C00D0E7094870470348704700BF0044025859
:100D7C0000093D000090D0030024744A00000039A3
:100D8C000024744C20BCBE4B40787D01002800F040
:100D9C00328170B50D4604469B4B1B6803F00F0364
:100DAC008B420BD2984A136823F00F030B4313604A
:100DBC00136803F00F038B4240F01F81236813F07C
:100DCC00040F0CD02269914B9B6903F070039A427B
:100DDC0005D98E498B6923F070031A438A61236805
:100DEC0013F0080F0CD06269884BDB6903F07003B9
:100DFC009A4205D98549CB6923F070031A43CA611D
:100E0C00236813F0100F0CD0A269804BDB6903F43C
:100E1C00E0639A4205D97D49CB6923F4E0631A4318
:100E2C00CA61236813F0200F0CD0E269774B1B6A60
:100E3C0003F070039A4205D974490B6A23F07003CE
:100E4C001A430A62236813F0020F0CD0E2686F4B4E
:100E5C009B6903F00F039A4205D96C498B6923F007
:100E6C000F031A438A61236813F0010F41D0674ABC
:100E7C00936923F47063A1680B4393616368022B3D
:100E8C000AD0032B27D0012B2CD0604A126812F009
:100E9C00040F06D10120ADE0126812F4003F00F0FF
:100EAC00AE805A490A6922F0070213430B6100F025
:100EBC005DFA0646554B1B6903F038036268B3EBC9
:100ECC00C20F16D000F052FA801B41F288339842C0
:100EDC00F0D903208EE04D4A126812F0007FE0D169
:100EEC00012087E0494A126812F4807FD9D1012091
:100EFC0080E0236813F0020F0CD0E268434B9B692F
:100F0C0003F00F039A4205D240498B6923F00F037B
:100F1C001A438A613C4B1B6803F00F03AB420AD99E
:100F2C00394A136823F00F032B431360136803F043
:100F3C000F03AB4265D1236813F0040F0CD0226968
:100F4C00324B9B6903F070039A4205D22F498B698F
:100F5C0023F070031A438A61236813F0080F0CD036
:100F6C0062692A4BDB6903F070039A4205D2274968
:100F7C00CB6923F070031A43CA61236813F0100F76
:100F8C000CD0A269214BDB6903F4E0639A4205D2D1
:100F9C001E49CB6923F4E0631A43CA61236813F03A
:100FAC00200F0CD0E269194B1B6A03F070039A42B4
:100FBC0005D216490B6A23F070031A430A62FFF735
:100FCC00EBFD12498B69C3F30323114AD35C03F085
:100FDC001F03D8408B6903F00F03D35C03F01F038E
:100FEC0020FA03F30B4A13600B4B18600B4B186879
:100FFC0000F05AF970BD012070470120FAE701207A
:10100C00F8E70120F6E700BF002000520044025828
:10101C00601500080C0000200800002004000020CF
:10102C00F0B583B000236BE085685E000324B44008
:10103C0025EA0405CC68B4402C438460446824EA57
:10104C000C0C4C68C4F300149C4044EA0C0444603F
:10105C0068E0DD08083550F8256003F007044FEA16
:10106C00840C0F2404FA0CF426EA040E0C6904FA1E
:10107C000CF444EA0E0440F825406BE0092400E02F
:10108C00002404FA0EF42C430CF1020C664D45F8C6
:10109C002C404FF0B0442568D44325EA02064F6833
:1010AC0017F4801F01D042EA05064FF0B0452E60C0
:1010BC006D6804EA05064F6817F4001F01D042EA78
:1010CC0005064FF0B0456E60D5F8845004EA05066D
:1010DC004F6817F4003F01D042EA05064FF0B045C7
:1010EC00C5F88460D5F880502C404E6816F4803FCB
:1010FC0001D042EA05044FF0B042C2F880400133FF
:10110C000A6832FA03F400F08C804FF0010C0CFAF0
:10111C0003FC1CEA0202F2D04C6804F00304013C0C
:10112C00012C81D94C6804F00304032C0CD0C46846
:10113C005D004FF0030C0CFA05FC24EA0C0C8C68D7
:10114C00AC4044EA0C04C4604C6804F00304022C68
:10115C003FF47FAF04684FEA430E4FF0030C0CFAD8
:10116C000EFC24EA0C0C4C6804F0030404FA0EF494
:10117C0044EA0C0404604C6814F4403FBFD02B4C80
:10118C00D4F8F45045F00205C4F8F450D4F8F44007
:10119C0004F002040194019C4FEA930C0CF102053B
:1011AC00214C54F8255003F003044FEA840E0F240D
:1011BC0004FA0EF425EA04051D4CA0423FF460AF7E
:1011CC0004F58064A0421ED004F58064A0421CD0BB
:1011DC0004F58064A0421AD004F58064A04218D0B3
:1011EC0004F58064A04216D004F58064A04214D0AB
:1011FC0004F58064A04212D004F50064A0423FF4D0
:10120C003DAF0A243DE701243BE7022439E70324E0
:10121C0037E7042435E7052433E7062431E70724B0
:10122C002FE703B0F0BD00BF000400580044025883
:10123C00000002580AB1816170470904816170474E
:10124C00436901EA030221EA030141EA0241816197
:10125C0070470000134BDB6813F0040F07D1114BE0
:10126C00DB6803F0070383421AD00120704710B5E6
:10127C000C4AD36823F007031843D06000F076F8CB
:10128C000446084B5B6813F4005F07D100F06EF85E
:10129C00001BB0F57A7FF4D9012000E0002010BDCE
:1012AC000020704700480258104B1B780BB90120E6
:1012BC00704710B504464FF47A70B0FBF3F30C4A48
:1012CC001068B0FBF3F0FFF713F968B90F2C01D9D4
:1012DC0001200AE0002221464FF0FF30FFF7D2F840
:1012EC00044B1C60002000E0012010BD0000002019
:1012FC00080000200400002010B50320FFF7B0F810
:10130C00FFF74AFC0F498B69C3F303230E4AD35CE6
:10131C0003F01F03D8408B6903F00F03D35C03F079
:10132C001F0320FA03F3094A1360094B18600F20BE
:10133C00FFF7BAFF10B10124204610BD0446FFF799
:10134C007DF8F9E700440258601500080C000020F5
:10135C0008000020034B1B78034A11680B441360F0
:10136C00704700BF0000002010000020014B1868DF
:10137C00704700BF1000002038B50446FFF7F6FF99
:10138C000546B4F1FF3F02D0044B1B781C44FFF719
:10139C00EDFF401BA042FAD338BD00BF0000002077
:1013AC002B4AD2F8883043F47003C2F88830294BAA
:1013BC001B6803F00F03062B06D8264A136823F08C
:1013CC000F0343F007031360234B1A6842F001022A
:1013DC001A6000221A611968204A0A401A601D4BD3
:1013EC001B6813F0080F06D01A4A136823F00F037A
:1013FC0043F007031360184B00229A61DA611A62FA
:10140C00174999621749D962174919635A63996345
:10141C00DA6319645A64196821F4802119601A6618
:10142C00D3F8D43013F4805F10D10B4BD3F8D42005
:10143C0042F48052C3F8D4200C4A43F2D20111601A
:10144C00D3F8D42022F48052C3F8D420704700BFC4
:10145C0000ED00E000200052004402587FEDF6EA57
:10146C00000202020000FF01800201010040005254
:10147C00054AD36843F00203D360034B5B6813F453
:10148C00005FFAD0704700BF00480258DFF838D030
:10149C00FFF7EEFFFFF784FF0C480D490D4A0023C0
:1014AC0002E0D458C4500433C4188C42F9D30A4A0D
:1014BC000A4C002301E013600432A242FBD300F07B
:1014CC0011F8FEF76FFF70470000022000000020AB
:1014DC0010000020701500081000002014000020DF
:1014EC00FEE7000070B50D4D0D4C641BA4100026DA
:1014FC00A64209D10B4D0C4C00F020F8641BA41033
:10150C000026A64205D170BD55F8043B984701361C
:10151C00EEE755F8043B98470136F2E7000000006F
:10152C000000000000000000000000000244034620
:10153C00934200D1704703F8011BF9E7F8B500BFDF
:10154C00F8BC08BC9E467047F8B500BFF8BC08BC98
:04155C009E467047F0
:101560000000000001020304010203040607080949
:1015700001000000100000000090D0030090D00394
:040000050800149942
:00000001FF
