:020000040800F2
:1000000000000220152E0008F10C0008F30C000877
:10001000F50C0008F70C0008F90C000800000000BF
:10002000000000000000000000000000FB0C0008C1
:10003000FD0C000800000000FF0C0008010D000886
:10004000692E0008692E0008692E0008692E000834
:10005000692E0008692E0008692E0008692E000824
:10006000692E0008692E0008692E0008692E000814
:10007000692E0008692E0008692E0008692E000804
:10008000692E0008692E0008692E0008692E0008F4
:10009000692E0008692E0008692E0008692E0008E4
:1000A000692E0008692E0008692E0008692E0008D4
:1000B000692E0008692E0008692E0008692E0008C4
:1000C000692E0008692E0008692E0008692E0008B4
:1000D000692E0008692E0008692E0008692E0008A4
:1000E000692E0008692E000800000000692E000833
:1000F000692E0008692E0008692E0008692E000884
:10010000692E0008692E0008692E0008692E000873
:10011000692E0008692E0008692E0008692E000863
:10012000692E0008692E0008692E0008692E000853
:10013000692E0008692E0008692E0008692E000843
:1001400000000000000000000000000000000000AF
:10015000692E0008692E0008692E0008692E000823
:10016000692E0008692E0008692E0008692E000813
:10017000692E0008692E0008692E000800000000A2
:10018000692E0008692E0008692E0008692E0008F3
:10019000692E0008692E0008692E0008692E0008E3
:1001A000692E0008692E0008692E00080000000072
:1001B000692E0008692E0008692E0008692E0008C3
:1001C000692E0008692E00080000000000000000F1
:1001D0000000000000000000692E00080000000080
:1001E000000000000000000000000000000000000F
:1001F0000000000000000000692E0008692E0008C1
:10020000692E0008692E000800000000692E000811
:10021000692E0008692E0008692E0008692E000862
:10022000692E000800000000692E00080000000090
:10023000692E0008692E000800000000692E0008E1
:10024000692E0008692E0008692E0008692E000832
:10025000692E0008692E0008692E0008692E000822
:10026000692E0008692E0008692E0008692E000812
:10027000692E0008692E0008692E000800000000A1
:10028000692E0008692E0008692E0008692E0008F2
:1002900000000000692E0008692E00080000000020
:1002A00000000000692E0008692E0008692E000871
:1002B000692E0008692E0008692E0008692E0008C2
:0C02C000692E0008692E0008692E000855
:1002D000034613F8012B002AFBD1181A0138704786
:1002E00001F0FF01102A2BDB10F0070F08D010F8E7
:1002F000013B013A8B422DD010F0070F42B3F6D1EB
:10030000F0B441EA012141EA014122F007047FF003
:1003100000070023F0E80256083C85EA010586EA5A
:10032000010685FA47F5A3FA87F586FA47F6A5FA96
:1003300087F68EB9EED1F0BC01F0FF0102F00702A2
:1003400032B110F8013B013A83EA010313B1F8D14D
:100350000020704701387047002D06BF354603382E
:10036000073815F0010F07D1013015F4807F02BF67
:10037000013015F4C03F0130F0BC0138704700BFB8
:1003800081F0004102E000BF83F0004330B54FEA46
:1003900041044FEA430594EA050F08BF90EA020FB3
:1003A0001FBF54EA000C55EA020C7FEA645C7FEA46
:1003B000655C00F0E2804FEA5454D4EB5555B8BF69
:1003C0006D420CDD2C4480EA020281EA030382EADA
:1003D000000083EA010180EA020281EA0303362D6C
:1003E00088BF30BD11F0004F4FEA01314FF4801C3F
:1003F0004CEA113102D0404261EB410113F0004F51
:100400004FEA03334CEA133302D0524263EB430307
:1004100094EA050F00F0A780A4F10104D5F1200EA5
:100420000DDB02FA0EFC22FA05F2801841F1000100
:1004300003FA0EF2801843FA05F359410EE0A5F1D4
:1004400020050EF1200E012A03FA0EFC28BF4CF005
:10045000020C43FA05F3C01851EBE37101F00045BB
:1004600007D54FF0000EDCF1000C7EEB00006EEBC8
:100470000101B1F5801F1BD3B1F5001F0CD3490852
:100480005FEA30004FEA3C0C04F101044FEA4452A9
:1004900012F5800F80F09A80BCF1004F08BF5FEA30
:1004A000500C50F1000041EB045141EA050130BD10
:1004B0005FEA4C0C404141EB0101013C28BFB1F522
:1004C000801FE9D291F0000F04BF01460020B1FA6D
:1004D00081F308BF2033A3F10B03B3F120020CDA40
:1004E0000C3208DD02F1140CC2F10C0201FA0CF01E
:1004F00021FA02F10CE002F11402D8BFC2F1200C83
:1005000001FA02F120FA0CFCDCBF41EA0C01904038
:10051000E41AA2BF01EB0451294330BD6FEA040481
:100520001F3C1CDA0C340EDC04F11404C4F120026C
:1005300020FA04F001FA02F340EA030021FA04F37E
:1005400045EA030130BDC4F10C04C4F1200220FAD5
:1005500002F001FA04F340EA0300294630BD21FA13
:1005600004F0294630BD94F0000F83F4801306BFD9
:1005700081F480110134013D4EE77FEA645C18BFCD
:100580007FEA655C29D094EA050F08BF90EA020F64
:1005900005D054EA000C04BF1946104630BD91EA5C
:1005A000030F1EBF0021002030BD5FEA545C05D15F
:1005B0004000494128BF41F0004130BD14F580049E
:1005C0003CBF01F5801130BD01F0004545F0FE4112
:1005D00041F470014FF0000030BD7FEA645C1ABF47
:1005E000194610467FEA655C1CBF0B46024650EA7E
:1005F000013406BF52EA033591EA030F41F40021AA
:1006000030BD00BF90F0000F04BF0021704730B52F
:100610004FF4806404F132044FF000054FF0000104
:1006200050E700BF90F0000F04BF0021704730B5C5
:100630004FF4806404F1320410F0004548BF40429A
:100640004FF000013EE700BF42004FEAE2014FEAEF
:1006500031014FEA02701FBF12F07F4393F07F4FCA
:1006600081F06051704732F07F4208BF704793F0CD
:100670007F4F04BF41F40021704730B54FF46074E0
:1006800001F0004521F000411CE700BF50EA0102E3
:1006900008BF704730B54FF000050AE050EA01028C
:1006A00008BF704730B511F0004502D5404261EBFC
:1006B00041014FF4806404F132045FEA915C3FF43D
:1006C000D8AE4FF003025FEADC0C18BF03325FEADA
:1006D000DC0C18BF033202EBDC02C2F1200300FA8B
:1006E00003FC20FA02F001FA03FE40EA0E0021FAB0
:1006F00002F11444BDE600BF53B94AB9002908BF4E
:1007000000281CBF4FF0FF314FF0FF3000F0ACB9B4
:10071000ADF1080C6DE904CE00F03EF8DDF804E020
:10072000DDE9022304B0704708B502460B4643ECEE
:10073000172BB5EEC07BF1EE10FA03D4BDE80840EC
:1007400000F00AB8B1EE477B51EC170B00F004F84B
:10075000404261EB410108BD9FED0B6B41EC170B73
:100760009FED0B5B27EE066BBCEEC66BB8EE464BFF
:10077000A4EE457BFCEEC77B16EE101A17EE900A2E
:10078000704700BFAFF30080000000000000F03DA4
:10079000000000000000F0412DE9F047089D0446EC
:1007A0008E46002B4DD18A42944669D9B2FA82F224
:1007B00052B101FA02F3C2F1200120FA01F10CFA60
:1007C00002FC41EA030E94404FEA1C48210CBEFB98
:1007D000F8F61FFA8CF708FB16E341EA034306FB21
:1007E00007F199420AD91CEB030306F1FF3080F0B0
:1007F0001F81994240F21C81023E63445B1AA4B2FD
:10080000B3FBF8F008FB103344EA034400FB07F79E
:10081000A7420AD91CEB040400F1FF3380F00A81DF
:10082000A74240F207816444023840EA0640E41BD4
:1008300000261DB1D4400023C5E900433146BDE880
:10084000F0878B4209D9002D00F0EF800026C5E922
:10085000000130463146BDE8F087B3FA83F6002E3A
:100860004AD18B4202D3824200F2F980841A61EBB2
:10087000030301209E46002DE0D0C5E9004EDDE7D0
:1008800002B9FFDEB2FA82F2002A40F09280A1EBB8
:100890000C014FEA1C471FFA8CFE0126200CB1FB0D
:1008A000F7F307FB131140EA01410EFB03F0884206
:1008B00008D91CEB010103F1FF3802D2884200F293
:1008C000CB804346091AA4B2B1FBF7F007FB101125
:1008D00044EA01440EFB00FEA64508D91CEB0404C3
:1008E00000F1FF3102D2A64500F2BB800846A4EB1E
:1008F0000E0440EA03409CE7C6F12007B34022FA09
:1009000007FC4CEA030C20FA07F401FA06F31C4337
:10091000F9404FEA1C4900FA06F3B1FBF9F8200C44
:100920001FFA8CFE09FB181140EA014108FB0EF08A
:10093000884202FA06F20BD91CEB010108F1FF3ADA
:1009400080F08880884240F28580A8F102086144E6
:10095000091AA4B2B1FBF9F009FB101144EA0141F4
:1009600000FB0EFE8E4508D91CEB010100F1FF349F
:100970006CD28E456AD90238614440EA0840A0FB37
:100980000294A1EB0E01A142C846A64656D353D00D
:100990005DB1B3EB080261EB0E0101FA07F722FA31
:1009A00006F3F1401F43C5E9007100263146BDE85A
:1009B000F087C2F12003D8400CFA02FC21FA03F3BD
:1009C000914001434FEA1C471FFA8CFEB3FBF7F03E
:1009D00007FB10360B0C43EA064300FB0EF69E4263
:1009E00004FA02F408D91CEB030300F1FF382FD2FC
:1009F0009E422DD9023863449B1B89B2B3FBF7F6A4
:100A000007FB163341EA034106FB0EF38B4208D97C
:100A10001CEB010106F1FF3816D28B4214D9023EBD
:100A20006144C91A46EA004638E72E46284605E7DB
:100A30000646E3E61846F8E64B45A9D2B9EB0208AC
:100A400064EB0C0E0138A3E74646EAE7204694E73C
:100A50004046D1E7D0467BE7023B614432E730466F
:100A600009E76444023842E7704700BF10B584B01C
:100A70000024009401940294039400F0B3F901233C
:100A80008DF800308DF8014001941F228DF8082068
:100A900087228DF809208DF80A408DF80B408DF8DB
:100AA0000C308DF80D308DF80E408DF80F406846F3
:100AB00000F0B6F9042000F0A3F904B010BD000066
:100AC0001C4A536843F4E003536002F540521A4B4A
:100AD000C2F8B03F1949C1F8B03F194B1B6819481B
:100AE000A0FB03031B0D013B0B610223C1F8F03097
:100AF000136843F001031360134AD2F8E03443F063
:100B00000203C2F8E034114BD3F8002422F0C002F3
:100B100042F08002C3F80024D3F8082442F0800297
:100B2000C3F80824D3F8202422F47042C3F8202408
:100B3000704700BF0010005C55CEACC50030005CB3
:100B40000800002083DE1B430040025800000258CA
:100B500072B6FEE700B59DB04C22002109A802F054
:100B6000AFF92022002101A802F0AAF9022000F02A
:100B7000D7FF00230093204B9A6922F440429A61E8
:100B80009B6903F440430093009B1B4B9B6913F448
:100B9000005FFAD0012209924FF480330A930223B6
:100BA0001293139314932C21159116921793189363
:100BB0000C23199300231A931B9309A800F05CF9E6
:100BC000A8B93F2301930321029100230393082333
:100BD00004934023059306934FF480620792089391
:100BE00001A800F039FD20B91DB05DF804FBFFF746
:100BF000AFFFFFF7ADFF00BF0048025808B5FFF791
:100C000035FF00F0DFFFFFF7A5FFFFF759FF00F00A
:100C100013F8074802F090F8054802F08DF8082113
:100C2000044800F073FF642001F00CF8F4E700BF03
:100C3000B87500080010025830B58BB00024059438
:100C40000694079408940994274BD3F8E02042F0C7
:100C50001002C3F8E020D3F8E02002F01002009266
:100C6000009AD3F8E02042F00402C3F8E020D3F861
:100C7000E02002F004020192019AD3F8E02042F051
:100C80008002C3F8E020D3F8E02002F08002029254
:100C9000029AD3F8E02042F00102C3F8E020D3F832
:100CA000E02002F001020392039AD3F8E02042F020
:100CB0000202C3F8E020D3F8E03003F0020304930B
:100CC000049B0A4D22460821284600F019FF0823FC
:100CD0000593012306930793089405A9284600F07D
:100CE00005FE0BB030BD00BF004402580010025892
:100CF000FEE7FEE7FEE7FEE7FEE770477047704756
:100D000008B500F08DFF08BD82B0074BD3F8F42082
:100D100042F00202C3F8F420D3F8F43003F00203E7
:100D20000193019B02B07047004402580649CB680A
:100D300023F4E0631B041B0C000200F4E060034397
:100D4000024A1A43CA60704700ED00E00000FA054D
:100D500000B5174BDB68C3F30223C3F1070CBCF1EA
:100D6000040F28BF4FF0040C03F1040EBEF1060F70
:100D700014D9033B4FF0FF3E0EFA0CFC21EA0C01A4
:100D800099400EFA03F322EA03031943002807DB14
:100D90000901C9B2074B19545DF804FB0023E9E7C8
:100DA00000F00F000901C9B2034B1954F4E700BF6A
:100DB00000ED00E000E400E014ED00E00138B0F1E7
:100DC000807F0BD24FF0E0235861054AF02182F872
:100DD00023100020986107221A6170470120704794
:100DE00000ED00E0BFF35F8F044B5A6A22F48032BB
:100DF0005A620022C3F89420704700BF00ED00E063
:100E000040F00100054BC3F894005A6A42F4803266
:100E10005A62BFF34F8FBFF36F8F704700ED00E052
:100E20004378144AC2F89830D2F8A03023F0010376
:100E3000C2F8A0304368C2F89C30017BC37A1B061D
:100E400043EA0173817A43EAC143417B43EA814328
:100E5000817B43EA4143C17B43EA0143417A43EA50
:100E60000123017A43EA410301780B43C2F8A03021
:100E7000704700BF00ED00E0002800F0D78238B5D1
:100E80000446036813F0010F25D0A04A136903F04C
:100E90003803926A102B15D0182B0FD06368B3F566
:100EA000803F3FD0002B53D1984B1A6822F48032F8
:100EB0001A601A6822F480221A6038E002F00302F5
:100EC000022AEBD1914B1B6813F4003F03D06368F7
:100ED000002B00F0AD82236813F0020F00F0888031
:100EE0008A4A1369926A13F038035AD0182B55D0E6
:100EF000E368002B00F0A98084490A6822F01902F7
:100F000013430B6000F098FE0546804B1B6813F0FE
:100F1000040F40F0918000F08FFE401B0228F4D9AE
:100F200003208CE2794A136843F4803313606368CA
:100F30002BB300F081FE0546744B1B6813F4003F91
:100F4000C9D100F079FE401B6428F5D9032076E270
:100F5000B3F5A02F09D06D4B1A6822F480321A60C5
:100F60001A6822F480221A60E1E7684B1A6842F49A
:100F700080221A601A6842F480321A60D7E700F0C3
:100F80005BFE0546614B1B6813F4003FA3D000F0E5
:100F900053FE401B6428F5D9032050E212F0030FE2
:100FA000A6D15A4B1B6813F0040F03D0E368002B43
:100FB00000F04082554A136823F01903E1680B439F
:100FC000136000F039FE0546504B1B6813F0040F08
:100FD00006D100F031FE401B0228F5D903202EE295
:100FE0004A4A536823F0FE43216943EA0163536090
:100FF000236813F0100F51D0444A136903F03803EB
:10100000926A082B39D0182B33D0E369002B69D0B2
:101010003E4A136843F08003136000F00DFE05465E
:101020003A4B1B6813F4807F53D100F005FE401B40
:101030000228F5D9032002E2344A536823F0FE4324
:10104000216943EA01635360D2E7304A136823F011
:101050000103136000F0F0FD05462C4B1B6813F0F4
:10106000040FC5D000F0E8FD401B0228F5D903208D
:10107000E5E102F00302012AC7D1244B1B6813F4F7
:10108000807F03D0E369802B40F0D6811F4AD3686C
:1010900023F07C53216A43EA0163D360236813F091
:1010A000080F49D06369002B32D0184A536F43F0C0
:1010B0000103536700F0C0FD0546144B5B6F13F04E
:1010C000020F39D100F0B8FD401B0228F5D90320EA
:1010D000B5E10E4AD36823F07C53216A43EA0163E9
:1010E000D360DBE7094A136823F08003136000F044
:1010F000A3FD0546054B1B6813F4807FCED000F09E
:101100009BFD401B0228F5D9032098E100440258BA
:101110009D4A536F23F00103536700F08DFD054690
:10112000994B5B6F13F0020F06D000F085FD401B5A
:101130000228F5D9032082E1236813F0200F29D07B
:10114000A3699BB1904A136843F48053136000F085
:1011500073FD05468C4B1B6813F4005F1AD100F039
:101160006BFD401B0228F5D9032068E1864A13680D
:1011700023F48053136000F05FFD0546824B1B682B
:1011800013F4005F06D000F057FD401B0228F5D98C
:10119000032054E1236813F0040F21D1636A002B6C
:1011A00000F04C81784A126902F03802182A00F0E7
:1011B000F380022B75D0744A136823F08073136098
:1011C00000F03AFD0446704B1B6813F0007F00F0FE
:1011D000D88000F031FD001B0228F4D903202EE155
:1011E0006A4A136843F48073136000F025FD0546D6
:1011F000664B1B6813F4807F06D100F01DFD401B79
:101200006428F5D903201AE1A368012B0AD00BBB8F
:101210005D4B1A6F22F001021A671A6F22F0040266
:101220001A6704E0584A136F43F001031367A36879
:1012300033B300F001FD0546534B1B6F13F0020F53
:10124000ACD100F0F9FC401B41F288339842F3D94D
:101250000320F4E0052B09D04B4B1A6F22F001025A
:101260001A671A6F22F004021A67E0E7464B1A6FFA
:1012700042F004021A671A6F42F001021A67D6E7B9
:1012800000F0DAFC0546404B1B6F13F0020F85D0CF
:1012900000F0D2FC401B41F288339842F3D903207E
:1012A000CDE0394A136823F08073136000F0C4FC6A
:1012B0000546354B1B6813F0007F06D000F0BCFCE0
:1012C000401B0228F5D90320B9E02F4B996A304A18
:1012D0000A40A16AE06A41EA00110A439A62226B5D
:1012E000013AC2F30802616B0139490289B20A432B
:1012F000A16B0139090401F4FE010A43E16B0139D4
:10130000090601F0FE410A431A63DA6A22F001027B
:10131000DA62596B1F4A0A40A16C42EAC1025A6361
:10132000DA6A22F00C02216C0A43DA62DA6A22F0ED
:101330000202616C0A43DA62DA6A42F48032DA62EB
:10134000DA6A42F40032DA62DA6A42F48022DA625D
:10135000DA6A42F00102DA621A6842F080721A60B8
:1013600000F06AFC0446084B1B6813F0007F06D1AE
:1013700000F062FC001B0228F5D903205FE000208A
:101380005DE000205BE000BF0044025800480258C6
:101390000CFCFFFF0700FFFF30498A6A086B012B36
:1013A0004ED002F00303A16A8B424BD1C2F3051267
:1013B000E36A9A4248D1C0F30802236B013B9A4288
:1013C00044D1C0F34622636B013B9A4240D1C0F343
:1013D0000642A36B013B9A423CD1C0F30660E36B2B
:1013E000013B984238D11D4B5B6BC3F3CC03A26C1D
:1013F0009A4201D1002022E0184AD36A23F0010367
:10140000D36200F019FC054600F016FCA842FBD0A0
:10141000124A516B124B0B40A16C43EAC103536358
:10142000D36A43F00103D362002008E00120704733
:10143000012004E0012002E0012000E0002038BD8E
:101440000120FCE70120FAE70120F8E70120F6E798
:101450000120F4E70120F2E70120F0E70044025800
:101460000700FFFF744B1B6903F03803102B00F0DB
:10147000DE80182B10D00BB1704870476E4B1B6884
:1014800013F0200F00F0D5806B4B1868C0F3C1003B
:101490006B4B23FA00F0704710B4674A916A01F071
:1014A0000301946AC4F30510D36A03F0010C536B73
:1014B000C3F3CC030CFB03F307EE903AF8EE677A24
:1014C00014F47C7F00F09380012965D0022900F09C
:1014D0009180E1B107EE100AF8EE476A9FED596A74
:1014E00086EE267A544B1B6BC3F3080306EE903A44
:1014F000F8EE666A9FED546A67EE867A76EEA77A12
:10150000F7EE006A77EEA67A27EE277A60E0136896
:1015100013F0200F23D011461268C2F3C102484BCA
:10152000D34007EE103AF8EE476A07EE100AB8EE1D
:10153000476A86EE867A0B6BC3F3080306EE903A91
:10154000F8EE666A9FED406A67EE867A76EEA77AD5
:10155000F7EE006A77EEA67A27EE277A38E007EEF4
:10156000100AF8EE476A9FED396A86EE267A324B0A
:101570001B6BC3F3080306EE903AF8EE666A9FED24
:10158000326A67EE867A76EEA77AF7EE006A77EE31
:10159000A67A27EE277A1BE007EE100AF8EE476AD4
:1015A0009FED286A86EE267A234B1B6BC3F3080354
:1015B00006EE903AF8EE666A9FED236A67EE867A49
:1015C00076EEA77AF7EE006A77EEA67A27EE277A0C
:1015D000194B1B6BC3F34623013307EE903AF8EE29
:1015E000677AC7EE276AFCEEE67A17EE900A5DF896
:1015F000044B704707EE100AF8EE476A9FED146A35
:1016000086EE267A0C4B1B6BC3F3080306EE903A6A
:10161000F8EE666A9FED0C6A67EE867A76EEA77A38
:10162000F7EE006A77EEA67A27EE277AD0E7094828
:1016300070470348704700BF0044025800093D004E
:101640000090D0030024744A000000390024744C38
:1016500020BCBE4B40787D01002800F0328170B57F
:101660000D4604469B4B1B6803F00F038B420BD2C5
:10167000984A136823F00F030B431360136803F0B9
:101680000F038B4240F01F81236813F0040F0CD02E
:101690002269914B9B6903F070039A4205D98E49E8
:1016A0008B6923F070031A438A61236813F0080FD3
:1016B0000CD06269884BDB6903F070039A4205D94C
:1016C0008549CB6923F070031A43CA61236813F07C
:1016D000100F0CD0A269804BDB6903F4E0639A42DF
:1016E00005D97D49CB6923F4E0631A43CA612368B5
:1016F00013F0200F0CD0E269774B1B6A03F07003E4
:101700009A4205D974490B6A23F070031A430A629E
:10171000236813F0020F0CD0E2686F4B9B6903F053
:101720000F039A4205D96C498B6923F00F031A43C2
:101730008A61236813F0010F41D0674A936923F44B
:101740007063A1680B4393616368022B0AD0032B7B
:1017500027D0012B2CD0604A126812F0040F06D15A
:101760000120ADE0126812F4003F00F0AE805A494B
:101770000A6922F0070213430B6100F05DFA064686
:10178000554B1B6903F038036268B3EBC20F16D0E8
:1017900000F052FA801B41F288339842F0D90320BE
:1017A0008EE04D4A126812F0007FE0D1012087E000
:1017B000494A126812F4807FD9D1012080E0236861
:1017C00013F0020F0CD0E268434B9B6903F00F0348
:1017D0009A4205D240498B6923F00F031A438A616C
:1017E0003C4B1B6803F00F03AB420AD9394A13681C
:1017F00023F00F032B431360136803F00F03AB4276
:1018000065D1236813F0040F0CD02269324B9B6919
:1018100003F070039A4205D22F498B6923F07003BD
:101820001A438A61236813F0080F0CD062692A4BAF
:10183000DB6903F070039A4205D22749CB6923F094
:1018400070031A43CA61236813F0100F0CD0A26909
:10185000214BDB6903F4E0639A4205D21E49CB6950
:1018600023F4E0631A43CA61236813F0200F0CD0FD
:10187000E269194B1B6A03F070039A4205D21649BC
:101880000B6A23F070031A430A62FFF7EBFD12495B
:101890008B69C3F30323114AD35C03F01F03D840C1
:1018A0008B6903F00F03D35C03F01F0320FA03F3EB
:1018B0000B4A13600B4B18600B4B186800F05AF979
:1018C00070BD012070470120FAE70120F8E70120F0
:1018D000F6E700BF0020005200440258C07500081F
:1018E0000C0000200800002004000020F0B583B0A8
:1018F00000236BE085685E000324B44025EA0405FC
:10190000CC68B4402C438460446824EA0C0C4C68D6
:10191000C4F300149C4044EA0C04446068E0DD0811
:10192000083550F8256003F007044FEA840C0F24B3
:1019300004FA0CF426EA040E0C6904FA0CF444EAE6
:101940000E0440F825406BE0092400E0002404FA6E
:101950000EF42C430CF1020C664D45F82C404FF070
:10196000B0442568D44325EA02064F6817F4801F67
:1019700001D042EA05064FF0B0452E606D6804EADA
:1019800005064F6817F4001F01D042EA05064FF024
:10199000B0456E60D5F8845004EA05064F6817F428
:1019A000003F01D042EA05064FF0B045C5F884601B
:1019B000D5F880502C404E6816F4803F01D042EAA2
:1019C00005044FF0B042C2F8804001330A6832FA91
:1019D00003F400F08C804FF0010C0CFA03FC1CEABD
:1019E0000202F2D04C6804F00304013C012C81D9BE
:1019F0004C6804F00304032C0CD0C4685D004FF065
:101A0000030C0CFA05FC24EA0C0C8C68AC4044EA8C
:101A10000C04C4604C6804F00304022C3FF47FAF54
:101A200004684FEA430E4FF0030C0CFA0EFC24EA54
:101A30000C0C4C6804F0030404FA0EF444EA0C04A1
:101A400004604C6814F4403FBFD02B4CD4F8F450E1
:101A500045F00205C4F8F450D4F8F44004F0020450
:101A60000194019C4FEA930C0CF10205214C54F8AF
:101A7000255003F003044FEA840E0F2404FA0EF4F9
:101A800025EA04051D4CA0423FF460AF04F58064D4
:101A9000A0421ED004F58064A0421CD004F58064EE
:101AA000A0421AD004F58064A04218D004F58064E6
:101AB000A04216D004F58064A04214D004F58064DE
:101AC000A04212D004F50064A0423FF43DAF0A24C6
:101AD0003DE701243BE7022439E7032437E70424E8
:101AE00035E7052433E7062431E707242FE703B061
:101AF000F0BD00BF00040058004402580000025826
:101B00000AB181617047090481617047436901EA44
:101B1000030221EA030141EA0241816170470000AA
:101B2000134BDB6813F0040F07D1114BDB6803F094
:101B3000070383421AD00120704710B50C4AD368BE
:101B400023F007031843D06000F076F80446084BF2
:101B50005B6813F4005F07D100F06EF8001BB0F56E
:101B60007A7FF4D9012000E0002010BD00207047EA
:101B700000480258104B1B780BB90120704710B574
:101B800004464FF47A70B0FBF3F30C4A1068B0FBD4
:101B9000F3F0FFF713F968B90F2C01D901200AE01F
:101BA000002221464FF0FF30FFF7D2F8044B1C60B3
:101BB000002000E0012010BD0000002008000020EF
:101BC0000400002010B50320FFF7B0F8FFF74AFC2F
:101BD0000F498B69C3F303230E4AD35C03F01F0341
:101BE000D8408B6903F00F03D35C03F01F0320FA86
:101BF00003F3094A1360094B18600F20FFF7BAFF7F
:101C000010B10124204610BD0446FFF77DF8F9E726
:101C100000440258C07500080C0000200800002095
:101C2000034B1B78034A11680B441360704700BFD5
:101C300000000020E4010020014B1868704700BF3D
:101C4000E401002038B50446FFF7F6FF0546B4F17D
:101C5000FF3F02D0044B1B781C44FFF7EDFF401BF5
:101C6000A042FAD338BD00BF000000202B4AD2F8B2
:101C7000883043F47003C2F88830294B1B6803F0A6
:101C80000F03062B06D8264A136823F00F0343F0F0
:101C900007031360234B1A6842F001021A60002206
:101CA0001A611968204A0A401A601D4B1B6813F01C
:101CB000080F06D01A4A136823F00F0343F00703F6
:101CC0001360184B00229A61DA611A62174999620F
:101CD0001749D962174919635A639963DA6319641A
:101CE0005A64196821F4802119601A66D3F8D43037
:101CF00013F4805F10D10B4BD3F8D42042F4805200
:101D0000C3F8D4200C4A43F2D2011160D3F8D42096
:101D100022F48052C3F8D420704700BF00ED00E0E9
:101D200000200052004402587FEDF6EA0002020251
:101D30000000FF018002010100400052054AD36803
:101D400043F00203D360034B5B6813F4005FFAD0E7
:101D5000704700BF0048025870470146002007E066
:101D600000EB8000531C0B60137803EB400030380D
:101D70000A681378303BDBB2092BF1D970472DE9A3
:101D8000F04F83B005460E4693461F46DDF830A05F
:101D90000D9CDDF838900F9B13F0030F19D1A0466E
:101DA0000192C84509D202F1010B3B463146202081
:101DB000A84708F101085A46F3E7DDF804B008E047
:101DC000013C02F101083B4631461AF80400A847DD
:101DD0004246002CF4D10F9B13F0020F03D11046A2
:101DE00003B0BDE8F08FA2EB0B034B45F7D2541CB8
:101DF0003B4631462020A8472246F4E72DE9F04330
:101E000085B09E460C9D0D9C9DF83890DDF83C8079
:101E1000DDF840C0119B129E16F0020F20D16BB16D
:101E200016F0010F0AD0B9F1000F02D116F00C0F15
:101E300004D0013B02E030272F5501341F2C98BFFE
:101E40006445F8D316F0010F0AD01F2C8CBF002771
:101E500001279C4204D21FB130272F550134F1E7EE
:101E600016F0100F27D016F4806F11D184B19C4268
:101E700018BF64450CD1B4F1010C14BF0127002731
:101E8000B8F1100F14BF002707F001072FB3023C71
:101E9000B8F1100F23D0B8F1100F29D01F2C98BF24
:101EA000B8F1020F02D162272F5501341F2C02D83E
:101EB00030272F5501341F2C05D8B9F1000F20D041
:101EC0002D272F55013403960293019400957346F4
:101ED000FFF755FF05B0BDE8F0836446D8E716F07C
:101EE000200FD8D11F2CD6D878272F550134DDE705
:101EF00016F0200FD2D01F2CD0D858272F550134E0
:101F0000D4E716F0040F03D02B272F550134DAE75E
:101F100016F0080FD7D020272F550134D3E7F0B59E
:101F200091B0169C189D1B9E0CB926F0100616F455
:101F3000806E1AD084B34FF0000E16E00CF1300C16
:101F40005FFA8CFC0EF101070EF1400EEE440EF824
:101F500020CCB4FBF5FCAC4234BF002401241F2F7D
:101F600088BF0024CCB1BE466446B4FBF5FC05FB3B
:101F70001C4C5FFA8CFCBCF1090FDFD916F0200F66
:101F800008D04127BC445FFA8CFCACF10A0C5FFA24
:101F90008CFCD7E76127F5E7274606961A9C05943F
:101FA000199C049403959DF85C400294019708AC39
:101FB0000094FFF723FF11B0F0BD2DE9F04F95B06D
:101FC00009900A910B929B461E9D1F9E229FDDF851
:101FD0008C80DDF898A055EA060301D12AF0100A9A
:101FE0001AF4806425D055EA060336D0002420E098
:101FF00003F13002D2B204F1010904F150030DEBF8
:10200000030404F8202C3A46434628463146FEF79E
:1020100073FBBD4276EB08032CBF01230023B9F10B
:102020001F0F8CBF002303F00103C3B14C460546CC
:102030000E463A46434628463146FEF75DFBD3B28C
:10204000092BD5D91AF0200F05D041221A44D2B25B
:102050000A3AD2B2CFE76122F8E74FF00009CDF893
:1020600018A0259B0593249B049303979DF880302B
:102070000293CDF804900CAB00935B460B9A0A993F
:102080000998FFF7BBFE15B0BDE8F08F0000000017
:102090002DE9F04F89B004460D4617461E461299A9
:1020A000DDF84CA0DDF85090B4EE400BF1EE10FAE4
:1020B00040F0AC809FED967BB4EEC70BF1EE10FACA
:1020C00000F3A4809FED947BB4EEC70BF1EE10FA01
:1020D00000F19C80B5EEC00BF1EE10FA00F1A48087
:1020E000B0EE405B19F4806000D1062115EE902A15
:1020F000C2F30A53A3F2FF3307EE103AC2F3130EF2
:1021000015EE102A4EF07F5343F44013B8EEC77B10
:102110009FED834B9FED846B07EE046BB7EE087B5E
:1021200043EC142B34EE477B9FED814B07EE046BA1
:10213000FDEEC67B17EE908AB8EEE74B9FED7E6B07
:10214000B6EE007B04EE067BFDEEC76BB8EEE67BD9
:102150009FED7B3B27EE037B9FED7B3B14EE037BE8
:1021600027EE074B16EE903A03F2FF334FF0000BC9
:102170004FEA035C37EE073BB0EE006B36EE477B71
:10218000B2EE0C6B84EE062BB2EE046B32EE062B35
:1021900084EE026BB1EE082B36EE026B84EE062B5A
:1021A00037EE027B83EE076BB7EE007B36EE077BE4
:1021B0004CEC16BB27EE067BB0EE476BB4EEC57B4E
:1021C000F1EE10FA05DD08F1FF38B2EE044B87EEB0
:1021D000046B08F16303C62B29D84FF0040B19F4E4
:1021E000006F2DD09FED5A7BB4EEC75BF1EE10FA75
:1021F0002BDB9FED597BB4EEC75BF1EE10FA24D5D3
:10220000414517DDA1EB0801013914E0CDF8089034
:10221000CDF804A0009133463A462946204600F006
:102220009FF809B0BDE8F08FB1EE405B5AE74FF080
:10223000050BD4E7002149F480694FF0000BD84624
:10224000D34508D2AAEB0B0306E00029F8D00028FA
:10225000F6D00139F4E7002319F00202079203D007
:10226000BBF1000F00D00023B8F1000F01D085EEC4
:10227000065BB5EEC00BF1EE10FA37D429F400621C
:10228000029201930091B0EE450B33463A4629463F
:10229000204600F065F8BBF1000FC2D019F0200F06
:1022A00027D04FF0450C00F101093346024629467C
:1022B0006046A04788EAE872A2EBE872052305931E
:1022C0000BF1FF330493002303930A2302934FEA95
:1022D000D8730193009233464A4629462046FFF7B9
:1022E0001EFE079B002B9CD002460CE0B1EE455B26
:1022F000C4E74FF0650CD6E702F1010833462946E2
:102300002020A0474246D31B5345F5D3104688E70B
:10231000FFFFFFFFFFFFEF7FFFFFFFFFFFFFEFFF6D
:10232000FB799F501344D33FB3C8608B288AC63FC4
:1023300061436F63A787D23F71A379094F930A4026
:10234000EF39FAFE422EE63F1655B5BBB16B02409F
:102350002D431CEBE2361A3F0000000080842E4122
:102360002DE9F04F8DB0169D179F189EB4EE400BCF
:10237000F1EE10FA28D19FEDB07BB4EEC70BF1EE71
:1023800010FA2AD49FEDAE7BB4EEC70BF1EE10FA33
:102390002CDC9FEDAD7BB4EEC70BF1EE10FA36DC12
:1023A0009FEDAB7BB4EEC70BF1EE10FA2FD4B5EE78
:1023B000C00BF1EE10FA30D44FF0000E16F4806F1F
:1023C00000F08B80002438E00396029703240194E8
:1023D000A34C0094FFF7D3FCFBE003960297042480
:1023E0000194A04C0094FFF7CAFCF2E016F004053B
:1023F00009D09D4C4DB10425039602970195009498
:10240000FFF7BDFCE5E0994CF4E70325F4E70296FD
:1024100001970095FFF73CFEDBE09FED8F7B37EEE9
:10242000400B4FF0010EC9E704F1300CEC444FF0C3
:1024300030080CF8208C013D01341F2C8CBF4FF06C
:10244000000C4FF0010C092D98BF4FF0000CBCF1AF
:10245000000FE9D1FDEEC07B17EE908AB8EEE77B66
:1024600030EE477BDFF80CC20CEBC50C9CED006B2B
:1024700027EE067BFCEEC75B15EE909AB8EE655B27
:1024800037EE457BB6EE005BB4EEC57BF1EE10FA9D
:1024900025DD09F1010907EE909AB8EE677BB4EEED
:1024A000C76BF1EE10FA03D808F101084FF00009EC
:1024B0002DBB07EE908AB8EEE77B30EE470BB6EE09
:1024C000007BB4EEC70BF1EE10FA00D54CDD18F02E
:1024D000010F49D008F1010846E0062572E7B6EE83
:1024E000006BB4EEC67BF1EE10FAE1D4B9F1000F47
:1024F00002D019F0010FDBD009F10109D8E71F2C38
:1025000022D8013DDFF870C1ACFB09AC4FEADC0C0E
:10251000E3460CEB8C0CA9EB4C0C04F1010A0CF11A
:10252000300C30346C4404F820CCB9F1090F35D9A3
:10253000D9465446E3E704F130056D444FF03009C5
:1025400005F8209C654601341F2C03D805F1FF3C9B
:10255000002DF0D11F2C07D804F130056D444FF049
:102560002E0C05F820CC01341F2C1AD8404D85FBC9
:1025700008C54FEAE87CCCEBA50C65460CEB8C0C4F
:10258000A8EB4C0C04F101090CF1300C30346C4414
:1025900004F820CCA8461DB14C46E5E75446D3E7E5
:1025A0004C4606F00305012D16D01F2C0AD8BEF1AB
:1025B000000F27D004F130056D444FF02D0C05F8C5
:1025C00020CC013403960297019404AC0094FFF7E9
:1025D000D6FB0DB0BDE8F08F7FB1BEF1000F02D188
:1025E00016F00C0F09D0013F07E004F130056D44EF
:1025F0004FF0300C05F820CC01341F2C98BFBC42A2
:10260000F3D3D2E716F0040F08D004F130056D447F
:102610004FF02B0C05F820CC0134D3E716F0080F4F
:10262000D0D004F130056D444FF0200C05F820CCDB
:102630000134C7E7AFF30080FFFFFFFFFFFFEFFFAD
:10264000FFFFFFFFFFFFEF7F0000000065CDCD41E2
:102650000000000065CDCDC10000000000000000BA
:10266000DC750008E0750008D4750008D075000816
:1026700067666666E8750008CDCCCCCC2DE9F04FD6
:102680008FB0074616460D938846002900F0228336
:1026900000240D9B1878002800F01E83252809D0FF
:1026A000651C334622464146B8470D9B01330D93C6
:1026B0002C46EEE701330D9300250D9B1978A1F10F
:1026C0002002102A0AD8DFE802F03809093D09097A
:1026D000090909090933092E09092900A1F1300363
:1026E000DBB2092B33D92A2936D000230A930D9B5C
:1026F0001A782E2A40D04FF0000B0D9A1378683BC1
:10270000122B77D8DFE803F06476D37656767676A8
:1027100076767676727676767676D80045F001050E
:1027200001330D93C9E745F0020501330D93C4E76A
:1027300045F0040501330D93BFE745F0080501336B
:102740000D93BAE745F0100501330D93B5E70DA8D9
:10275000FFF703FB0A90CAE7189B1A1D1892186826
:10276000002804DB0A900D9B01330D93BFE745F071
:10277000020543420A93F6E745F480655A1C0D9220
:102780005A78A2F13003DBB2092B04D92A2A07D0E8
:102790004FF0000BB1E70DA8FFF7DFFA8346ACE777
:1027A000189B1A1D18921B6823EAE37B0D9B0133CB
:1027B0000D93A2E745F48071531C0D9352786C2A57
:1027C00001D00D4616E045F4407501330D9311E03C
:1027D00045F08001531C0D935278682A01D00D46B4
:1027E00008E045F0C00501330D9303E045F4807522
:1027F00001320D920D9B1878A0F12503532B00F2A6
:102800005F82DFE813F052025D025D025D025D024D
:102810005D025D025D025D025D025D025D025D02C0
:102820005D025D025D025D025D025D025D025D02B0
:102830005D025D025D025D025D025D025D025D02A0
:102840005D025D025D026D014F016D015D025D0281
:102850005D025D025D025D025D025D025D025D0280
:102860005D025D025D025D025D025D025E005D0271
:102870005D025D025D025D025D025D025D025D0260
:102880005E0099015E006D014F016D015D025E0009
:102890005D025D025D025D025D025E0037025D0267
:1028A0005D02D2015D025E005D025D025E0045F4E4
:1028B000007501320D929DE745F4807501320D924D
:1028C00098E7582818BF782807D06F283CD062288E
:1028D0003CD025F010050A2300E01023582837D0FB
:1028E000692818BF642801D025F00C0515F4806F05
:1028F00001D025F00105642818BF692876D115F4A8
:10290000007F28D115F4807F49D115F0400F5FD0AA
:10291000189A111D1891127882EAE271A1EBE27106
:1029200005950A980490CDF80CB00293D20F01924D
:1029300000913346224641463846FFF7F0FA0446F6
:102940000D9B01330D93A4E60823C7E70223C5E7D7
:1029500045F02005C4E7189A073222F0070202F179
:1029600008011891516812680846002913DB089580
:102970000A9D0795CDF818B0049300230593C90F5D
:102980000291009201903346224641463846FFF7B5
:1029900014FB0446D4E7524261EB4100E7E7189A82
:1029A000111D1891126882EAE271A1EBE27105959E
:1029B0000A980490CDF80CB00293D20F01920091C6
:1029C0003346224641463846FFF7A9FA0446B7E7A0
:1029D00015F0800F05D0189A111D1891B2F900203A
:1029E0009AE7189A111D1891126895E715F4007F5F
:1029F0001AD115F4807F33D115F0400F45D0189AC5
:102A0000111D1891127805950A990491CDF80CB012
:102A100002930023019300923346224641463846F2
:102A2000FFF77DFA04468BE7189A073222F0070277
:102A300002F10801189108950A990791CDF818B08C
:102A40000021049305910291D2E90023CDE90023EE
:102A50003346224641463846FFF7AFFA04466FE751
:102A6000189A111D189105950A990491CDF80CB08A
:102A70000293002301931368009333462246414694
:102A80003846FFF74CFA04465AE715F0800F04D099
:102A9000189A111D18911288B5E7189A111D1891EE
:102AA0001268B0E7462818D0189B073323F00703B5
:102AB00003F10802189293ED000B02950A9B019313
:102AC000CDF800B03346224641463846FFF748FC71
:102AD00004460D9B01330D93DBE545F02005E3E74C
:102AE000472814BF00230123672814BF1A4643F068
:102AF00001020AB145F40065452808BF43F001030F
:102B00000BB145F02005189B073323F0070303F1B1
:102B10000802189293ED000B02950A9B0193CDF8E1
:102B200000B03346224641463846FFF7B1FA044624
:102B30000D9B01330D93ACE515F002051FD04FF04E
:102B400001091898031D189304F1010A334622461F
:102B500041460078B847BDB90D9B01330D935446EB
:102B600097E502F1010A334641462020B8474B461B
:102B7000524603F101099B45F3D81446E1E70123CE
:102B8000DDF828B02246F4E75246DDF828A006E03A
:102B9000551C334641462020B847A1462A4609F134
:102BA0000104CA45F4D89246D6E7189B1A1D18921C
:102BB000D3F800A0BBF1000F1ED14FF0FF33D14678
:102BC00002E009F10109134699F8002012B15A1EDA
:102BD000002BF6D1A9EB0A0915F480630B9302D000
:102BE000D94528BFD94615F002030C9306D02246DA
:102BF0005C46B3460B9E1DE05B46E0E722460A9C1E
:102C00004B4607E002F10109334641462020B84710
:102C10002B464A465D1C9C42F4D8A9465C46B34606
:102C20000B9E07E01C460AF1010A551C5B46414613
:102C3000B8472A469AF8000020B1002EF3D0631E50
:102C4000002CEFD114465E460C9B1BB90D9B013343
:102C50000D931EE5DDF828A006E0551C33464146DD
:102C60002020B847A1462A4609F10104CA45F4D8F4
:102C70001446EBE745F02105189B1A1D18921B68B6
:102C8000059508220492CDF80CB010220292002281
:102C9000019200933346224641463846FFF73FF9FA
:102CA00004460D9B01330D93F3E4651C3346224625
:102CB00041462520B8470D9B01330D932C46E8E48F
:102CC000651C334622464146B8470D9B01330D93A0
:102CD0002C46DEE4074FDBE4B44201D3721E00E071
:102CE0002246334641460020B84720460FB0BDE893
:102CF000F08F00BF591D00084FF06043D3F8803EAD
:102D000013F0010F10D04FF06043D3F8003E13F0E2
:102D1000010F01D1704700BF4FF060431B68002BCB
:102D2000F9D04FF060431870704700B9704708B58C
:102D3000FFF7E2FF08BD00000FB400B585B006AA9A
:102D400052F8043B039200924FF0FF3202A904486C
:102D5000FFF794FC05B05DF804EB04B0704700BFCA
:102D60002B2D00080120704708B500F07FF81623CE
:102D700003604FF0FF3008BD08B54FF0FF31FFF79B
:102D8000F3FFFEE770B50C461646002506E0AFF3EC
:102D90000080214601F8010B01350C46B542F6DBF7
:102DA000304670BD70B50C461646002504E014F898
:102DB000010BAFF300800135B542F8DB304670BD42
:102DC00008B503460B4A126842B10A4A1068034428
:102DD0006A46934206D8074A136008BD054A064969
:102DE0001160F2E700F042F80C2303604FF0FF306F
:102DF000F3E700BFE8010020000200204FF0FF30A1
:102E000070474FF400534B6000207047012070471B
:102E100000207047DFF838D0FEF790FFFEF726FF5E
:102E20000C480D490D4A002302E0D458C450043325
:102E3000C4188C42F9D30A4A0A4C002301E01360FB
:102E40000432A242FBD300F017F8FDF7D7FE70471B
:102E50000000022000000020E40100204C7B00085C
:102E6000E4010020FC010020FEE70000014B18688F
:102E7000704700BF1000002070B50D4D0D4C641B55
:102E8000A4100026A64209D10B4D0C4C04F088FB7F
:102E9000641BA4100026A64205D170BD55F8043B62
:102EA00098470136EEE755F8043B98470136F2E7BC
:102EB0000000000000000000000000000000000012
:102EC00002440346934200D1704703F8011BF9E71F
:102ED000F0B52DED028BB0EE408B85B017460D9D01
:102EE0000C9E18EE902A25F02005002AB6BF2D2250
:102EF0000022B1EE408B462D0C461A7004D0452DB1
:102F000000D10134022100E0032103AB019302ABA5
:102F1000009322463346B0EE480B01F02DFD472DBD
:102F200001D1FB071AD5462D00EB04020CD1037822
:102F3000302B07D1B5EE408BF1EE10FA1CBFC4F177
:102F40000104346033681A44B5EE408BF1EE10FA98
:102F500008BF03923021039B934207D3039B0E9A31
:102F60001B1A136005B0BDEC028BF0BD5C1C039412
:102F70001970F0E7F7B503460029B8BF494203F8D6
:102F8000022BB4BF2D222B22092942702ADD0DF11C
:102F90000704A4460A27A6460A4691FBF7F607FB54
:102FA00016153035632A04F1FF340EF8015C314602
:102FB000F1DC3031AEF1020504F8011C441C294655
:102FC00061450AD30DF10902A2EB0E02654588BFE7
:102FD00000221344181A03B0F0BD11F8012B04F8B5
:102FE000012FEDE7302330318370C170031DF1E70D
:102FF0002DE9F04F8BB00C46DDF8508016461F4689
:10300000054602F097FDD0F800B05846FDF760F98C
:1030100000230893D8F8003094F8189022680733FA
:1030200023F0070303F10801C8F800108246D3E932
:103030000001C4E912019FED987B94ED120BB0EEF4
:10304000C06BB4EE476BF1EE10FA24DDB5EEC00BA9
:10305000F1EE10FA02D52D2384F84330904B9148BD
:10306000B9F1470F94BF984680460323236122F0AD
:1030700004020023226004930097334609AA2146E4
:10308000284600F0D3F9013040F08A804FF0FF303D
:103090000BB0BDE8F08FB4EE400BF1EE10FA09D79B
:1030A00010EE903A002BBCBF2D2384F843307E48AD
:1030B0007E4BD5E7636809F0DF010491591C3CD1D0
:1030C000062363600023039308ABCDE9019342F428
:1030D000806207AB6168009322600DF11B032846F4
:1030E000FFF7F6FE049B0799472B804608D1C81CC2
:1030F00002DB6368994241DDA9F102095FFA89F9AF
:10310000B9F1650F20D801394A4604F15000079102
:10311000FFF730FF089A04901318012A236102DC9C
:103120002268D20701D5013323619DF81B30002BA3
:10313000A2D02D2384F843309EE704994729C1D1BA
:10314000002BBFD10123BCE7B9F1660F18D10029CC
:1031500063680BDD216113B92268D00702D5013302
:103160000B4423610023A1650493DEE713B92268B1
:10317000D20701D50233F4E70123F2E74FF06709E4
:10318000089B994205DB23682161D807EAD54B1CCF
:10319000E7E70029D4BFC1F1020201221344E0E7AE
:1031A00023685A0507D42369424631462846B84762
:1031B00001302AD16AE7B9F1650F40F2E28094ED5F
:1031C000127BB5EE407BF1EE10FA33D1384A012381
:1031D00031462846B84701303FF458AFDDE90723B0
:1031E0009A4202DB2368D8070FD553465A46314628
:1031F0002846B84701303FF449AF4FF0000804F1CA
:103200001A09089B013B434509DC23689B0700F131
:103210000881E068099B9842B8BF184638E7012347
:103220004A4631462846B84701303FF42FAF08F1EF
:103230000108E6E7079B002B3CDC1D4A01233146D1
:103240002846B84701303FF421AFDDE90723134397
:1032500002D12368D907D8D553465A463146284665
:10326000B84701303FF412AF4FF0000904F11A0AD9
:10327000079B5B424B4501DC089B95E701235246C7
:1032800031462846B84701303FF400AF09F1010943
:10329000EEE700BFAFF30080FFFFFFFFFFFFEF7F10
:1032A0003C7600084076000848760008447600081E
:1032B0004C760008089AA36D9A42A8BF1A46002AC5
:1032C000914638DC0023059329EAE97904F11A02D2
:1032D000A36D05990493A3EB09038B4233DCDDE96D
:1032E00007239A423CDB2368DA0739D4089B049A07
:1032F00007999A1AA3EB01099145A8BF9146B9F124
:10330000000F35DC4FF0000829EAE97904F11A0AC8
:10331000DDE907239B1AA3EB090343457FF775AF4C
:103320000123524631462846B84701303FF4AEAE3D
:1033300008F10108ECE71346314642462846B847F3
:103340000130BFD1A2E60123314628460492B84796
:1033500001303FF49BAE059B049A01330593B7E718
:1033600053465A4631462846B8470130BED18DE60D
:10337000049A4B46424431462846B8470130C1D1F1
:1033800084E6089A012A01DCDB0737D5012342468F
:1033900031462846B84701303FF478AE53465A4686
:1033A00031462846B84701303FF470AE94ED127BA9
:1033B000B5EE407BF1EE10FA1BD0089B08F101023C
:1033C000013B31462846B84701300ED15EE6012365
:1033D0004A4631462846B84701303FF457AE08F117
:1033E0000108089B013B4345F1DC049B04F15002BA
:1033F000DBE64FF0000804F11A09F2E70123424628
:10340000DFE701234A4631462846B84701303FF4FA
:103410003DAE08F10108E36809995B1A4345F0DC09
:10342000F7E64FF0000804F11909F4E72DE9F04739
:10343000164699468A680B69DDF820809342B8BF2A
:103440001346336091F8432007460C460AB1013316
:1034500033602368990642BF3368023333602568BE
:1034600015F0060506D104F1190AE36832689B1AC3
:10347000AB4226DC94F84320131E226818BF0123B8
:1034800092062BD404F1430249463846C047013026
:103490001ED02368E568326803F00603042B08BFDA
:1034A000AD1AA36822690CBF25EAE5750025934291
:1034B000C4BF9B1AED1800261A34B5421AD1002059
:1034C00008E00123524649463846C047013003D13F
:1034D0004FF0FF30BDE8F0870135C6E7E1185A1C10
:1034E000302081F84300224494F8451082F84310BC
:1034F0000233C7E70123224649463846C047013018
:10350000E6D00136D9E700002DE9FF470F7E0C9D7C
:10351000782F914680460C469A4601F1430207D81F
:10352000622F0AD8002F00F0D880582F00F0A38017
:1035300004F1420584F842703AE0A7F16303152BC9
:10354000F6D801A151F823F0A1350008B5350008DF
:1035500031350008313500083135000831350008B3
:10356000B53500083135000831350008313500081F
:1035700031350008C1360008E5350008A3360008DB
:103580003135000831350008E336000831350008D0
:10359000E53500083135000831350008AB36000844
:1035A0002B681A1D1B682A6004F1420584F842301A
:1035B0000123A3E020682968060601F104030AD567
:1035C0000E682B60002E03DA2D23764284F84330F8
:1035D0005E480A2319E00E682B6010F0400F18BFF8
:1035E00036B2EFE72B682068191D2960010601D566
:1035F0001E6802E04606FBD51E8854486F2F0CBF9C
:1036000008230A23002184F843106568A560002D73
:10361000A2BF216821F0040121600EB9002D4DD018
:103620001546B6FBF3F103FB1167C75D05F8017D95
:103630003746BB420E46F4D9082B0BD12368DE0770
:1036400008D5236961689942DEBF302305F8013C43
:1036500005F1FF35521B2261CDF800A04B4603AAAD
:1036600021464046FFF7E2FE01304CD14FF0FF30DB
:1036700004B0BDE8F087354881F8457029682368B3
:1036800051F8046B29601D0614D5DF0744BF43F0D1
:10369000200323601EB9236823F020032360102336
:1036A000B0E7236843F0200323607823284884F898
:1036B0004530E3E7590648BFB6B2E6E71546BBE733
:1036C0002B6826686169181D286035061B6801D5BE
:1036D000196002E07006FBD51980002323611546AE
:1036E000BAE72B681A1D2A601D6862680021284607
:1036F000FCF7F6FD08B1401B60606368236100239E
:1037000084F84330A8E723692A4649464046D04713
:103710000130ABD023689B0713D4E068039B984229
:10372000B8BF1846A4E70123324649464046D04771
:1037300001309BD00135E36803995B1AAB42F2DCA0
:10374000EBE7002504F11906F5E700BF4E76000807
:103750005F7600082DE9F04F87B0174603938B681A
:103760005A1EB2F5AE7F83BF6FF4AE755B1902933C
:10377000002386BF40F25D138B6002930B688B467B
:10378000002543F4F0634BF81C3BCDE9045580461B
:103790000C465E46AA46A9460195A26852B13B680E
:1037A0001B784E2B64D8402B3CD8A3F12B01C8B218
:1037B0000E283AD9B9F1000F03D0236823F480739F
:1037C00023600AF1FF3ABAF1010F00F213815E455E
:1037D00000F205810125284607B0BDE8F08FA3F16E
:1037E00061020D2AE6D801A151F822F02B39000818
:1037F000B5370008B5370008B53700088B39000821
:1038000063390008B5370008B537000839390008B2
:10381000B5370008B5370008B5370008B5370008D8
:10382000F1380008A3F14102DBE70E29C2D801A05C
:1038300050F821F0E3380008B5370008E3380008F5
:1038400077390008B537000891380008CD380008EE
:10385000CD380008CD380008CD380008CD38000834
:10386000CD380008CD380008CD380008CD38000824
:103870006E2B09D8602BB2D8542B77D0592B99D105
:10388000072D97D1082529E0742B6FD0792BF6E707
:103890002168C8051AD5029B21F08001216009F139
:1038A00001091BB1013B01320293A260A368013BF5
:1038B000A3602369013323617B68013B002B7B609C
:1038C00040F384803B6801333B6066E71AEB050FE9
:1038D0007FF470AF226822F4C072226006F8013BC8
:1038E000E4E7226810067FF565AF22F08002F4E776
:1038F000BAF1000F0ED1B9F1000F0ED1226802F417
:10390000E061B1F5E06F08D122F4F06222604FF07F
:10391000010AE3E7BAF1020F55D0012D02D0042DC0
:103920007FF448AF0135EDB2D8E7BAF1010F7FF46B
:1039300041AF4FF0020AD1E77DB9B9F1000F7FF432
:103940003CAF226802F4E061B1F5E06F7FF439AF7B
:1039500022F4F06222600125C0E7032DE2D0052D9C
:10396000DEE7022D7FF426AF0325B7E7062D7FF4AF
:1039700021AF0725B2E7226891057FF51BAF22F43E
:1039800020722260CDF80490A8E7226802F4A061BA
:10399000B1F5806F06D050057FF50CAFB9F1000F7F
:1039A0003FF40FAF910558BF019922F4F06258BF60
:1039B000A9EB010142F4C07258BFCDE904162260A0
:1039C0004FF000098AE74FF0030A87E7D4F8803107
:1039D00039464046984700283FF4DFAEEAE6D4F87F
:1039E0007C3116F8011D3A46404698472369013B51
:1039F0002361ECE66B1E062B25D8022D36D85E45DA
:103A00007FF6E8AED4F87C3116F8011D3A46404600
:103A100098472369013B2361F1E70298D4F87C3190
:103A200010F8011D02903A46404698472369013B31
:103A300023610AF1FF3A5FFA8AFABAF1020FECD178
:103A4000033DEDB2761B2368DA052FD55B0510D553
:103A50005E457FF6BFAED4F87C3116F8011D3A46BC
:103A6000404698472369013B2361F1E7AA46029645
:103A7000DFE716F8011C2369652903F1FF3306F11E
:103A8000FF3523610CD045290AD0D4F87C313A4661
:103A900040469847236916F8021C013BB51E236176
:103AA000D4F87C313A46404698472E46256815F0B2
:103AB00010054ED13570236803F4C063B3F5806FF1
:103AC00019D1019B4B45A3EB090221D10022594694
:103AD000404600F03BFE2268039B12F0020F1B6879
:103AE00021D003991A1D0A601B6883ED000BE3685F
:103AF0000133E3606FE6049B002BE7D005990A23AE
:103B00002A460131404600F0A9FE049B059EC21AD8
:103B100004F26F139E4228BF04F5B7760E49304673
:103B200000F024F8D2E7039912F0040F03F1040225
:103B30000A60D9D1B4EE400BF1EE10FA1E6805D739
:103B4000064800F00DF886ED000AD0E7B7EEC00B8E
:103B5000F9E700253FE600BF70760008E07A00082C
:103B60009FED010A704700BF0000C07F0EB400B592
:103B70009CB01DAB029006906FF000410948079180
:103B80000491094953F8042B05910068019302A997
:103B900002F00CFE029B00221A701CB05DF804EBD0
:103BA00003B07047100000200802FFFF70B5044604
:103BB0000D46164645EC104B02F05AFB7EB1C5F39C
:103BC0000A53C3F16B03002B09DD1B0503F17F5181
:103BD000002001F5401141EC170B20EE070B70BDE2
:103BE0002DE9F04F2DED0E8B97B01F460023129359
:103BF000A14B0D921B680793044618468B46FCF7B1
:103C000067FB4FF0000805464FF00009CDF844B0BF
:103C1000119A13782B2B4DD03AD80D2B33D8082B73
:103C200033D8002B3DD000230893119E3378302BDE
:103C300040F0B080737803F0DF03582B67D1089B06
:103C4000019312AB029700938C4A13AB11A9204643
:103C500001F068FC10F00705074605D0062D2BD1B2
:103C600001360023119608930D9B002B40F04E85E2
:103C7000089BE3B149EC178BB1EE470B17B0BDECD5
:103C80000E8BBDE8F08F202BCDD101321192BFE712
:103C90002D2BC8D101230893531C11935378002B6B
:103CA000C3D10D9BCDF844B0002B40F02D8549ECDD
:103CB000108BE3E70023EEE7129A3AB1352114A8FE
:103CC00002F0DEFB1299204601F0A0FF013D042D19
:103CD00006D8DFE805F00A0314170A00DDE91489A5
:103CE0003F07C1D549F00049BEE7DDE91483139AC7
:103CF00023F4801302F2334243EA0259F0E7DFF87B
:103D00008091EDE76FF000494FF0FF38E8E7119B35
:103D10005A1C11925B78302BF9D0002BA4D00123D0
:103D20004FF0000A0493119B0A93CDF824A0CDF81C
:103D300018A00A2211980778A7F13003D9B20929EF
:103D40002AD907992A4602F04BFE002833D00020DA
:103D5000069B3A4601460746652A01D0452A17D1F7
:103D60001BB9049B03439CD00023DDF844B00BF146
:103D7000010211929BF801202B2A71D02D2A77D0B5
:103D80004FF0000EA2F13005092D7FD9CDF844B0D7
:103D900000259BE00023C3E706990829DDBF0999A8
:103DA00002FB0133099302FB0A3A069B01300133FF
:103DB00006931190BEE7119B5A1911925A5D069B0A
:103DC000A3B30746A2F13001092912D90121C3E7A3
:103DD000119B5A1C11925A780130302AF8D0A2F166
:103DE0003103082B00F29784119B0A9307460020A9
:103DF0000346303A00F1010112D00F4400EB030CEE
:103E000019460A25614513D11918082903F1010340
:103E100003441CDC09980A2101FB002209920021BD
:103E2000119A501C119052780846CBE70698D4E7B7
:103E3000082904DC099E6E4309960131E2E701F18D
:103E4000010EBEF1100FD8BF05FB0AFAF5E7102BE3
:103E5000DCBF0A2101FB0A2AE1E70027012180E7F4
:103E60004FF0000E0BF1020211929BF8022089E73D
:103E70004FF0010EF6E700BF0479000878760008DD
:103E80000000F07F119A551C11955278302AF9D014
:103E9000A2F13105082D3FF67BAFA2F1300C119A4B
:103EA0000792119A551C11955278A2F13006092EED
:103EB00037D9079EAD1B082D44F61F6502DC65450A
:103EC000A8BF6546BEF1000F00D06D42002B4DD15A
:103ED000049B03437FF4C8AE00297FF4E2AE692A55
:103EE00027D024DC492A24D04E2A7FF4DAAE964922
:103EF00011A801F06FFD00283FF4D3AE119B1B7891
:103F0000282B2DD1914914AA11A801F077FD05287D
:103F100026D1159BDDF8508043F0FF4949F4E009B4
:103F2000A2E60A2505FB0C25A5F1300CB9E76E2A9F
:103F3000DBE7874911A801F04DFD00283FF4B1AE41
:103F4000119B8449013B11A8119301F043FD10B965
:103F5000119B01331193DFF810924FF0000883E6B4
:103F60007D4802F025FD59EC108B7DE6EA1BDDED66
:103F7000097A0792069AB8EE677B002A08BF1A46AC
:103F8000102B06921A46A8BF1022092B59EC178B4A
:103F90000CDD724901EBC20111ED125B06EE90AA35
:103FA000B8EE666BA7EE056B59EC168B0F2B36DC63
:103FB000079900293FF458AE23DD16290BDC674B27
:103FC00003EBC10393ED007B49EC168B27EE067BD8
:103FD00059EC178B48E60798C3F1250181421EDB97
:103FE0005E4AC3F10F0302EBC30191ED007B49EC84
:103FF000168BC31A02EBC30227EE067B92ED006B11
:10400000E4E7079916310ADB544B7D1B03EBC5052A
:1040100095ED007B49EC168B86EE077BD8E7079978
:104020009A1A0A44002A6FDD12F00F000AD04B4999
:1040300001EBC00191ED007B49EC168B27EE067B6E
:1040400059EC178B32F00F024FD0B2F59A7F22DD78
:1040500000252E4606952F462223DFF80C9123607B
:104060004FF00008069B002B3FF4FEAD129920464E
:1040700001F0CCFD3946204601F0C8FD314620460E
:1040800001F0C4FD0699204601F0C0FD29462046F6
:1040900001F0BCFDE8E5002049EC178BDFF8C0C05B
:1040A00012110146012A23DC08B159EC178B2C4A66
:1040B0002C4802EBC10292ED007BA9F1547949EC46
:1040C000168B294A27EE067B17EE901A0A40824289
:1040D00059EC178BBCD8A0F58010824286BFDFF860
:1040E0008C904FF0FF3801F154790022049278E06F
:1040F000D60704D59CED006B012027EE067B01312D
:1041000052100CF1080CCDE7EFD0524212F00F0024
:104110000AD0124901EBC00191ED007B49EC168BEE
:1041200086EE077B59EC178B1211DED01F2A1FDD9C
:1041300000252E4606952F4622234FF000084FF00B
:10414000000923608EE700BF497600088C760008DE
:1041500041760008CC770008E07A0008C0790008B2
:10416000987900080000A07C0000F07FFFFFEF7F3F
:1041700012F0100118BF6A21049149EC178BBE4957
:104180000020D60704D591ED006B012027EE067BB9
:10419000521001F10801F4D108B159EC178B049ABF
:1041A000C2B1C9F30A51C1F16B02002A484611DDC0
:1041B0001F2A40F32E81342ADEBFC1F14B014FF09C
:1041C000FF3202FA01F14FF00008CCBF4FF05C79EA
:1041D00001EA000949EC178BB5EE407BF1EE10FACD
:1041E000A6D0099A00920A99069A204601F076FD17
:1041F000069000283FF42CAF079B7D1B002BB4BF1B
:104200002B4600230993079B9FED939B9FED94AB57
:104210009FED95BB23EAE37300250C932E46069B86
:104220002046596801F0B2FC074600283FF414AF5D
:10423000069B1A69023203F10C0192000C3001F066
:1042400097FC49EC108B14AA13A9204602F08CF8B5
:1042500049EC188B129000283FF4FEAE0121204655
:1042600001F0D6FD064600283FF4F6AE139B1499E4
:10427000002BABBF099A0C9ADDF830A0DDF824B012
:10428000ACBF03EB020BA2EB030A049A9B1A0B448C
:104290007A4A013B9342C1F1360180F2CD80D21AB5
:1042A0001F2AA1EB02014FF0010000F3B98000FAD0
:1042B00002F30B9300230A930BEB0103049A9B4533
:1042C0008A4492445A46A8BF1A465245A8BF52464D
:1042D000002AC2BF9B1AAAEB020AABEB020B099A97
:1042E000002A18DD314620460F9301F051FE0646A4
:1042F00000283FF4B1AE0146129A204601F09EFD1F
:104300000E9000283FF4A8AE1299204601F07EFCE2
:104310000E9A0F9B1292002B00F39380079B002BA9
:1043200008DD39460C9A204601F032FE0746002887
:104330003FF492AEBAF1000F08DD394652462046EE
:1043400001F080FE074600283FF486AEBBF1000F67
:1043500008DD31465A46204601F074FE0646002824
:104360003FF47AAE12993A46204601F0F7FE054630
:1043700000283FF471AE0023D0F80CA0C360314692
:1043800001F0D0FE00287DDA5AEA080340F0A3804D
:10439000C9F31303002B40F09E8029F000431B0D4E
:1043A0001B05B3F1D66F40F296806B691BB92B6980
:1043B000012B40F3908029460122204601F042FE65
:1043C0003146054601F0AEFE002840F38480049992
:1043D0002B4A4B46002900F09D8002EA0901B1F109
:1043E000D66F00F39780B1F15C7F7FF7A5AE9FEDAC
:1043F000207B49EC168B26EE077B8DED047BDDE9F7
:104400000432134308BF2223DDE9048908BF236077
:104410002CE64FF0FF3101FA02F202EA0808D9E671
:10442000C3F17F4303F57F0303F57B43E23300FAD7
:1044300003F3CDE90A303FE700220123CDE90A2347
:104440003AE712991A46204601F0FCFD1290002826
:104450007FF464AF00E600BF9535A094FFFFCF3F27
:104460009535A094FFFFDF3F35E5AF350000E03F15
:104470000000000000005039A076000802FCFFFF99
:104480000000F07FCB465FD1C9F31303BAF1000FF0
:104490002AD0A74A93422BD1049B4246FBB1A54B9D
:1044A00009EA0303B3F1D46F4FF0FF311AD81B0DA3
:1044B000C3F16B0301FA03F39A4219D19E4B9B455A
:1044C00002D101323FF4C8AD9A4B0BEA030303F566
:1044D00080194FF00008049B002B88D1C6E54FF0EF
:1044E000FF33E9E70B46E7E753EA08033FF46FAF12
:1044F0000A9BCBB113EA0B0FEDD0049A4046494614
:10450000BAF1000F14D0FFF751FB38EE007B59ECE5
:10451000178BE0E71340A3F580136FEA13596FEA96
:1045200009594FF0FF38D6E70B9B13EA080FE3E772
:10453000FFF73CFB38EE400BB5EE400BF1EE10FA06
:1045400059EC108BC7D1F7E53146284601F068FFDA
:10455000B0EE007BB4EEC70BF1EE10FA65D8BAF1FD
:10456000000F42D0754B0022B7EE00DB7148DFF838
:10457000D8C10BEA0001614540F08E80ABF154795F
:1045800049EC108B43EC1C2B0A9101F071FE49ECB5
:104590001E8B6848ACEE00EB1EEE903A684A0A9912
:1045A0001840904259EC1E8B4ED918EE903A02F109
:1045B0005472934204D118EE103A01333FF44CADDB
:1045C000DFF874914FF0FF381299204601F01EFB7E
:1045D0003946204601F01AFB3146204601F016FB11
:1045E0002946204601F012FB19E6B8F1000F12D15E
:1045F000C9F31303B3B9B7EE007BB4EEC70BF1EE0A
:1046000010FAB6EE00DB58BF20EE0DDBB1EE4D7BAD
:1046100053EC172BAAE7B8F1010F03D1B9F1000F42
:104620003FF48AAD474B00229EE7B6EE00DB20EE5A
:104630000DDBBAF1000F04D1B1EE4D7B53EC172B1B
:1046400094E7B0EE4D7BF9E703F15479049B002B1E
:10465000BAD129F000431B0D1B059942B4D151EC8E
:104660001D0BFCF761F8FCF719F8C9F3130341ECD3
:10467000170B43EA080353EA0A033DEE47DB3CD03D
:10468000B4EECADBF1EE10FA3FF5F0ACB4EECBDBE2
:10469000F1EE10FA98DDE9E40498F0B1B1F1D46FCD
:1046A0001BD89FED217BB4EEC7DBF1EE10FA11D8D9
:1046B000BCEECDDB1DEE103A012B38BF01230DEE11
:1046C000103AB8EE4DDBBAF1000F13D1B1EE4D7BCD
:1046D00053EC172B03F1D660431AB0EE480B43ECB2
:1046E0001C2B0A9101F0C4FD0A99ACEE008B59EC29
:1046F000188BABE7B0EE4D7BEAE7B4EEC9DBF1EE29
:1047000010FA7FF561AFB1E4002308930D9A119B75
:104710001360FFF7ADBA652A3FF49FAB452A3FF41B
:104720009CAB0121FFF7D4BB0000C0FFFFFFDF41BE
:10473000FFFF0F000000F07FFFFFEF7F0000F03F62
:10474000FFFF9F7C0000F0BF0000E07F014BFFF700
:1047500047BA00BF78000020012B2DE9F04701D0B7
:10476000242B06D9FEF782FB162303600020BDE848
:10477000F087DFF8E4C00D462E4615F8014B14F81B
:104780000C7017F00807F7D12D2C32D12C780127A7
:10479000B51C002B5BD0102B09D1302C07D12C7805
:1047A00004F0DF04582C4DD16C781023023507F14A
:1047B000004808F1FF384FF0000CB8FBF3F96646EB
:1047C00003FB198AA4F1300EBEF1090F16D8744606
:1047D000A34224DDBCF1000F1EDBB1451CD301D187
:1047E000A24519DB06FB03464FF0010C15F8014BFF
:1047F000E8E72B2C04BF2C78B51CCAE7A4F1410EC6
:10480000BEF1190F01D8373CE2E7A4F1610EBEF109
:10481000190F04D8573CDBE74FF0FF3CE6E7BCF14B
:10482000000F05DA22230360464642B930469EE770
:1048300007B17642002AF9D0BCF1000F00D0691E02
:104840001160F3E73024002BB1D10823AFE7302CFF
:10485000A5D00A23ABE700BFC9760008FFF77CBFED
:104860002DE9F74F03690C69A3420746C0F2818026
:10487000013C01F1140800F1140505EB84030193D8
:1048800058F8243055F8242001339A424FEA840B1B
:1048900008EB8409B2FBF3F631D34FF0000E40462B
:1048A000AC46F24650F8042B93B206FB03E34FEA02
:1048B000134E9BB2AAEB0303DCF800A0120C13FA10
:1048C0008AF306FB02E20093009B4FEA124E92B27B
:1048D000C2EB1A4202EB2342BDF80030814543EAA5
:1048E00002434CF8043B4FEA224ADBD255F80B3026
:1048F0002BB9019B043B9D421A462ED33C6138469E
:1049000001F010FC002824DB013628464FF0000C93
:1049100058F8042BD0F800E093B2ACEB0303120C70
:1049200013FA8EF3C2EB1E4202EB23429BB243EA20
:104930000243C14540F8043B4FEA224CE8D255F807
:10494000242005EB840322B9043B9D421A460AD376
:104950003C61304603B0BDE8F08F1268043B002A8A
:10496000CCD1013CC7E71268043B002AF0D1013CDE
:10497000EBE70020EEE700002DE9F04F2DED028B74
:10498000456A91B08DED020B59EC108B1C9C069181
:10499000064608920C9375B9102001F0CFF8024634
:1049A000706220B9AA4BEA21AA4802F03BF8C0E99C
:1049B00001550560C560736A196851B15A684A604B
:1049C000012393408B60304601F020F9736A002286
:1049D0001A60B9F10003BBBF23F000430393002327
:1049E0000122ACBF236022609B4B039CA3431CD1DC
:1049F0000C9A42F20F731360C4F3130353EA0803D3
:104A000000F0FD841D9B63B9944B1FE0944B019310
:104A100008331D9A1360019811B0BDEC028BBDE8FC
:104A2000F08F8E4B01930333F3E79DED028BB5EED0
:104A3000408BF1EE10FA0BD10C9A012313601D9BF1
:104A4000002B00F0D98487481860431E0193E2E7E9
:104A50000FA90EAA3046B0EE480B01F085FCC4F356
:104A60000A5105460E98002946D018EE904AC4F324
:104A7000130453EC182B44F07F5343F44013A1F27A
:104A8000FF31002443EC162BB7EE087B9FED6A5BE9
:104A900036EE477B9FED6A6BA7EE056B9FED6A5B79
:104AA00007EE901AB8EEE74BB0EE467BA4EE057B1E
:104AB000FDEEC76BB5EEC07BF1EE10FA16EE90BAC4
:104AC0000A9408D5B8EEE66BB4EE476BF1EE10FA37
:104AD00018BF0BF1FF3BBBF1160F2FD8624B03EB56
:104AE000CB0393ED007BB4EEC78BF1EE10FA01D54A
:104AF0000BF1FF3B002322E00F99014401F2324306
:104B0000202BC1BFC3F1400304FA03F301F21244A6
:104B100028FA04F8D6BFC3F1200343EA080808FACC
:104B200003F807EE908AB8EE677B013917EE904ADA
:104B300053EC172BA4F1F8730124A3E701230B9383
:104B4000431A5A1E45BFC3F10103049300230023F7
:104B5000059254BF04930593BBF1000F18DB059B2E
:104B6000CDF824B05B4405930023069A092A49D85E
:104B7000052AC4BF043A0692069AA2F10202CCBFEB
:104B800000240124032A48D8DFE802F00B2E2C3A37
:104B9000049B0022A3EB0B0304930992CBF10003C7
:104BA000E3E700220792089A002A39DC4FF0010A55
:104BB000D1465246CDF820A0776A002179600420C2
:104BC00000F1140C944579682FD930460D9300F00C
:104BD000DDFF0D9B01900246002849D1234B4FF485
:104BE000D571E1E60122DDE700220792089A0BEB7E
:104BF000020A0AF101094A46012AB8BF0122DBE78D
:104C00000122F2E701240022CDE906244FF0FF3A09
:104C10000021D14612220891CEE701220792F5E742
:104C2000DDF820A0D1465246C6E701317960400048
:104C3000C6E700BFAFF3008061436F63A787D23F31
:104C4000B3C8608B288AC63FFB799F501344D33F7B
:104C5000D6770008ED7700080000F07FD2770008D3
:104C6000C97700084D760008C07900086B78000805
:104C7000726A01991160B9F10E0F6CD8002C6AD0DC
:104C8000BBF1000F40F3A080C1490BF00F0201EB14
:104C9000C2021BF4807F92ED007B4FEA2B1100F0E3
:104CA0008780BC4A92ED086B88EE066B8DED026B37
:104CB00001F00F010322B74800297BD19DED026B63
:104CC00086EE077B8DED027B0B99002900F0A28018
:104CD000B7EE006B9DED027BB4EEC67BF1EE10FAF1
:104CE00040F19880B9F1000F00F09480BAF1000F04
:104CF0002FDDB2EE046B27EE067B8DED027B0BF110
:104D0000FF37013250469DED026BB1EE0C5B07EEB2
:104D1000902AB8EEE77BA7EE065B15EE904A52ECC0
:104D2000151BA4F15072002877D1B1EE047B36EE4A
:104D3000476B42EC171BB4EEC76BF1EE10FA00F3B1
:104D40006382B1EE477BB4EEC76BF1EE10FA00F16F
:104D500058828DED028B0F9A002AC0F21D81BBF1A3
:104D60000E0F00F319818A4B03EBCB0393ED006B1D
:104D7000089B002B80F2B780B9F1000F00F3B380DD
:104D800040F03F82B1EE047B26EE076B9DED027B87
:104D9000B4EEC76BF1EE10FA4C464F4680F2158226
:104DA000DDF80480312308F8013B0BF1010B11E21F
:104DB000022280E7CC0704D590ED006B013227EE8C
:104DC000067B4910083077E722D0CBF10001704A0A
:104DD00001F00F0002EBC00292ED007B28EE077B92
:104DE0008DED027B6B4809110024022229B9002CA9
:104DF0003FF46AAF8DED027B66E7CF0705D590EDF6
:104E0000006B0132012427EE067B49100830EDE7E4
:104E1000022259E75F46484675E742EC171B5C4A99
:104E200002EBC00212ED024B019A1418079A52B31A
:104E3000B6EE003BB7EE002BDDF8048083EE045B9A
:104E4000B2EE043B35EE477BFDEEC64B14EE902AE6
:104E5000B8EEE45B303236EE456BB4EEC76BF1EE84
:104E600010FA08F8012B39D432EE465BB4EEC75B7A
:104E7000F1EE10FA72D4A0453FF46BAF27EE037B3E
:104E800026EE036BE0E7DDF8048027EE047B214685
:104E9000B2EE043BFDEEC64B14EE902A303208F819
:104EA000012BA045B8EEE45B36EE456B18D1B6EEAB
:104EB000005B37EE054BB4EEC46BF1EE10FA4DDC3F
:104EC00035EE477BB4EEC76BF1EE10FA7FF541AFDC
:104ED0008846013918F8013C302BF9D0BB462AE04E
:104EE00026EE036BD6E79DED027BB2EE044BDDF8B8
:104EF000048087EE065BBDEEC55B15EE103A3033DD
:104F000008F8013B019BA8EB03039945B8EEC53BAC
:104F1000A3EE467B33D137EE077BB4EEC67BF1EED2
:104F200010FA1ADCB4EE467BF1EE10FA03D115EE5E
:104F3000103AD90711D42946304600F067FE002305
:104F40000C9A88F800300BF1010313601D9B002BB5
:104F50003FF461ADC3F800805DE55F464346984687
:104F600013F8012D392A06D1019A9A42F7D10199F5
:104F7000302201370A701A7801321A70AEE727EE34
:104F8000047BB5EE407BF1EE10FAB2D1D3E700BF5F
:104F9000C0790008987900080799002900F0D080AE
:104FA0000699012900F3B4800A99002900F0AC8029
:104FB00002F23342DDF810801C460A93049B13442E
:104FC0000493059B012113443046059300F020FF14
:104FD0000A9B0746B8F1000F0DDD059A002A0ADD8D
:104FE00042450499A8BF4246891A04910599A8EB45
:104FF00002088A1A059203B3079A002A00F0A580D6
:10500000002C13DD3946224630460D9300F0C0FFD8
:105010002A4601460746304600F010FF29460A900E
:10502000304600F0F3FD0A9A0D9B15461A1B04D07A
:105030002946304600F0ACFF05460121304600F01D
:10504000E7FE099B002B044640F381801A46014687
:10505000304600F09DFF069B012B04467ADD0023BD
:105060000A93226904EB8202106900F081FEC0F10C
:105070002000059B184410F01F0000F08C80C0F148
:105080002002042A40F38580C0F11C00049B0344E5
:105090000493059B034480440593049B002B05DD8A
:1050A00029461A46304600F0CDFF0546059B002BE9
:1050B00005DD21461A46304600F0C4FF04460B9B2E
:1050C000002B6AD02146284601F02CF8002864DA2B
:1050D000002329460A22304600F0BAFD079B0BF157
:1050E000FF3B0546002B00F09181394600230A2240
:1050F000304600F0ADFDBAF1000F074600F38D8099
:10510000069B022B50DC88E00E9AC2F1360251E772
:1051100009F1FF34A342BFBF099AE31AD2180992DA
:10512000B6BF23461C1B0024B9F1000FB5BF049A7B
:10513000DDF81080A2EB09084A46B8BF00223CE720
:10514000DDF81080079F1C4644E71A4670E7069B6F
:10515000012B18DC029BB3B9039BC3F31302A2B962
:1051600023F00042120D12058AB1049B013304930F
:10517000059B0133059301230A93099B002B7FF4C0
:1051800070AF012075E70023F6E7029BF4E70A926F
:10519000F3E782D010461C3078E7B9F1000F37DC16
:1051A000069B022B34DDCA46BAF1000F0DD1214611
:1051B00053460522304600F04BFD01460446284682
:1051C00000F0B0FF00283FF7EBAD089BDDF804804E
:1051D0006FEA030B4FF000092146304600F016FD40
:1051E000002F3FF4A8AEB9F1000F05D0B94503D0A8
:1051F0004946304600F00AFD3946304600F006FDCB
:1052000099E600242746E0E7BB4604460746C7E583
:10521000079BCA46002B00F00081B8F1000F05DDA6
:1052200039464246304600F00DFF07460A9B002BE8
:105230005DD07968304600F0A9FC804628B9824BE1
:10524000024640F2EA21FFF7AFBB3A690232920010
:1052500007F10C010C3000F08BFC01224146304676
:1052600000F0F0FE019B01330493019B534408932B
:10527000029B03F00103B94607930746049B2146AE
:10528000013B28460293FFF7EBFA034630330590C3
:1052900049462846099300F045FF3A468246214692
:1052A000304600F05BFFC268099B80460ABB01469E
:1052B000284600F037FF099B024641463046CDE9BB
:1052C000093200F0A3FC069B0A9ADDF8108043EA3D
:1052D0000201079B0B43099B0DD1392B29D0BAF151
:1052E000000F01DD059B3133029A137074E73846D5
:1052F000B8E70122E1E7BAF1000F06DB069941EABF
:105300000A0A07995AEA010120D1002AECDD294650
:1053100001223046049300F095FE2146054600F038
:1053200001FF0028049B02DCDED1DA07DCD5392B33
:10533000D8D1029A3923137043469846013B18F896
:10534000012C392A51D001321A7045E7002A03DDB9
:10535000392BEED00133C7E7049A089902F8013CD3
:105360008A422BD0294600230A22304600F070FCE6
:10537000B94505464FF000034FF00A024946304652
:1053800007D100F065FC81460746049B0133049376
:1053900074E700F05DFC3946814600230A2230465E
:1053A00000F056FC0746F0E7BAF1000F019ACCBFB7
:1053B000D0464FF0010890444FF0000929460122E1
:1053C0003046029300F03EFE2146054600F0AAFE5C
:1053D0000028B1DC02D1029BDB07ADD443469846DE
:1053E00013F8012D302AFAD0F6E6019A9A42A4D198
:1053F0000BF1010B312378E7144BFFF727BB1D9B03
:10540000002B7FF403AB124BFFF720BBBAF1000F68
:1054100003DC069B022B3FF7C7AEDDF80480214674
:105420002846FFF71DFA00F1300308F8013B019A06
:10543000A8EB02029245B7DD294600230A22304636
:1054400000F006FC0546EAE76B7800084C76000899
:10545000C97700080369B3EB611F2DE9F0434FEAF8
:10546000611200F1140445DD11F01F0104EB830605
:1054700004EB82050CD100F110072946B14234D368
:105480009B1A9B00EA1E964238BF0023234415E076
:1054900054F82270C1F12008CF4005F1040EA14656
:1054A0007645F44615D89A1A9200043A0135AE4270
:1054B00038BF0022A318A75007B104331A1BA34218
:1054C0004FEAA20208BF0023026108BF4361BDE8A2
:1054D000F083DCF800C00CFA08FC4CEA070749F836
:1054E000047B5EF8047BCF40DAE751F804CB47F841
:1054F00004CFC3E72346E1E7A0F13003092B02D82C
:105500002038C0B27047A0F16103052B01D847389D
:10551000F7E7A0F14103052B01D82738F1E7002078
:10552000704700002DE9F04F2DED028B89B008EE99
:10553000100A0493B44B1B68019318468B4690469F
:10554000FAF7C6FE019BDBF800200344824613F8FD
:10555000013C0593931CC2F1FF2202F57F02FE324B
:10556000D1181F4613F8010B00913028F8D0FFF72F
:10557000C3FF044600283AD101995246384601F04B
:105580002FFA0546002868D117F80A0007EB0A062B
:10559000FFF7B2FF002862D03346187830281F4644
:1055A00003F10103F9D0FFF7A7FF0123B0FA80F45C
:1055B0006409354600933A46164601323078FFF7C3
:1055C0009BFF0028F8D101995246304601F008FAB5
:1055D00080B94DB906EB0A052A46164601323078E5
:1055E000FFF78AFF0028F8D1AD1BAD0004E00024CE
:1055F0002546E0E7002DF7D1337803F0DF03502B89
:105600003BD173782B2B2CD02D2B2ED0711C4FF02F
:1056100000090878FFF770FF431EDBB2182B2CD867
:10562000A0F1100211F8010FFFF766FF431EDBB275
:10563000182B1DD9B9F1000F00D052421544CBF8F8
:105640000010E4B1009B002B14BF0027062738464A
:1056500009B0BDEC028BBDE8F08F3E462546012423
:10566000CAE74FF00009B11CD3E74FF00109FAE790
:105670000A2303FB0202103AD4E73146DFE7F31BAB
:10568000013B2146072B0BDC18EE100A00F07EFAD6
:10569000044640B95D4B0246DE215D4801F0C2F987
:1056A00001315B10EEE700F114094FF0000BCAF175
:1056B0000103CDF80890CDF800B00693B74240D36F
:1056C0000298009B40F8043BA0EB090080104601C3
:1056D0002061184600F04CFB301AD8F80060B04248
:1056E00063DD871B3946204600F0EDFE8246A8B1F7
:1056F0007B1E591103F01F0259F821104FF0010AC7
:105700000AFA02F20A4209D0534505DDB91E2046C5
:1057100000F0D9FE002845D14FF0020A3946204654
:10572000FFF798FE3D44D8F80830AB424CDA18EE4B
:10573000100A214600F06AFA149A00231360A32786
:1057400085E7731E059A039316F8013C934219D01E
:10575000BBF1200F07D1029B009A43F8042B029360
:10576000002300939B4616F8010CFFF7C5FE009B33
:1057700000F00F0000FA0BF0034300930BF1040B51
:10578000039B0DE0039B069A1344BB42E0D31846EB
:1057900001990793524601F023F9079B0028D7D1BE
:1057A0001E468BE74FF0030AB8E70ADA371A21469C
:1057B00018EE100A3A4600F045FCED1B044600F1D5
:1057C00014094FF0000AAEE7D8F80400A84272DDD1
:1057D000451BAE4236DCD8F80C30022B2AD0032B06
:1057E0002CD0012B1CD1AE421AD1012E12D1049A19
:1057F000D8F80430136001232361C9F80030149BEA
:1058000062271C6023E700BF047900086B7800085A
:105810007C780008711E204600F055FE0028E6D175
:1058200018EE100A214600F0F1F9149A00231360D3
:1058300050270CE7159B002BF2D1D8E7159B002BC6
:10584000D5D1EDE76F1EBAF1000F31D127B139463E
:10585000204600F038FE82467B11012159F82330A2
:1058600007F01F0701FA07F71F422946204618BF15
:105870004AF0020A761BFFF7EDFDD8F80450022724
:10588000BAF1000F48D0D8F80C30022B15D0032BFA
:1058900017D0012B09D11AF0020F06D0D9F8000059
:1058A0004AEA000A1AF0010F0ED147F0100733E060
:1058B0004FF0010AD0E70127E2E7159BC3F101038E
:1058C0001593159B002BF0D0D4F810B004F11403FD
:1058D0004FEA8B0A03EB8B014FF0000C184653F88C
:1058E000042BB2F1FF3F1CD001320260022F04F101
:1058F00014033FD1D8F80020013AB2420AD1711105
:10590000012253F8213006F01F0602FA06F61E4265
:1059100018BF174647F02007149B1C60049B1D60AE
:1059200095E6994243F804CCD8D8A3689B4519DB87
:10593000616818EE100A013100F028F9814618B9A3
:105940001A4B02468421A8E62269023204F10C01B6
:1059500092000C3000F00CF9214618EE100A00F00D
:1059600055F94C4623695A1C04EB8303226101223A
:105970005A61BBE722695A450BDD01212046FFF73A
:1059800069FDD8F808300135AB42FFF6D0AE0127EB
:10599000C0E716F01F06FAD05344C6F1200653F8AC
:1059A000040C00F0E5F9B042E7DBF0E76B780008A3
:1059B000C2F10802920070B5C2F120064368046883
:1059C00003FA06F52C43D340046040F8043F8842B4
:1059D000F4D370BD30B50368013311F8014B14B92D
:1059E0000360012030BD13F8012BA2F14105192DF0
:1059F00098BF2032A242F0D00020F3E72DE9F04F0B
:105A00000B685E1102EB860613F01F0387B018BF08
:105A100004360025371F904602680193824646F8F7
:105A2000045CB9463C460295AB465178531C03933F
:105A300041B3084605920491FFF75EFD00284FD15F
:105A40000499059A202918D8029B9B4513DD4C45E3
:105A500006D2072D04DC2A4649462046FFF7A8FF58
:105A6000444550D90023A4F1040944F8043CCDF87E
:105A700008B04C461D46039AD7E7292956D1023271
:105A8000CAF80020BBF1000F50D04C4506D2072DBC
:105A900004DC2A4649462046FFF78AFF444534D9AC
:105AA000A8F10402234653F8041B42F8041F9F4246
:105AB000F9D23B1B23F0030304330134033EB44209
:105AC00088BF04234344002243F8042B9F42FBD2A7
:105AD0003B681BB9474527D101233B60052026E0E1
